:100000000C940D040C942A040C942A040C942A04D5
:100010000C942A040C942A040C942A040C942A04A8
:100020000C942A040C942A040C9485320C945733B3
:100030000C94232D0C942A040C942A040C942A0466
:100040000C942A040C942A040C942A040C942A0478
:100050000C942A040C94AC2D0C942A040C942A04BD
:100060000C942A040C942A040C942A040C942A0458
:100070000C942A040C942A040C942A040C942A0448
:100080000C942A040C942A040C942A040C942A0438
:100090000C942A040C942A040C942A040C942A0428
:1000A0000C942A040C942A040C942A045007500738
:1000B0007C077C07F207FD08FD08FD08100878089A
:1000C000890889082F1D321D371D3E1D431D481DFF
:1000D0004D1D521D571D5C1D611D661D681D6B1D4C
:1000E0006E1D711D741D771D791D7C1D801DD81D11
:1000F000FB1D031E3F1E591E6F1E8B1E9E1EE81EFB
:10010000ED1E521F521F521FF41E9C229222A62245
:10011000F622FA22FA22F622FA22FA22C722FA223A
:10012000D122DB22FA22FA22FA22FA22F622FA223B
:10013000FA22F622FA22B422FA22FA22EB22EB2247
:10014000EB22EB22EB22EB22EB22EB22EB22F8223A
:10015000FA229C228F22FA22FA22FA22FA22FA2288
:10016000FA22FA22FA22FA22FA22F822FA22FA22B1
:10017000F622FA22E922E922E922E922E922E92209
:10018000E922E922E922F822E727ED27DB27E12708
:10019000F327F927FF27BF33E633DE34E633DE34B7
:1001A00032345534DE34AC34BB34DA00D900A90023
:1001B000AA00237824782578267827782878297843
:1001C0002A782178227850004F0021782278500038
:1001D0004F002178227850004F002178227850007B
:1001E0004F002178227850004F002400250026007F
:1001F0002100220023001E001F00200024002500F3
:1002000026002100220023001E001F002000010004
:1002100001000100010001000100010001000100D6
:1002200001000100010001000100010001000100C6
:1002300001000100010001000100010001000100B6
:1002400001000100010001000100010001000100A6
:100250000100010001000100010001000100010096
:100260000100010001000100010001000100010086
:10027000010001000100010001001E0F0500047FC4
:100280003F1F643214643214783C1E1E140A052287
:1002900023252628292A2C2D2F3032333536383A7B
:1002A0003B3D3E4042434547494A4C4E50515355D1
:1002B00057595A5C5E6062646668696B6D6F7173F2
:1002C0007577797B7D7F81838587898A8C8E9092F3
:1002D0009496989A9C9E9FA1A3A5A7A8AAACAEAFFE
:1002E000B1B3B4B6B8B9BBBCBEBFC1C2C3C5C6C743
:1002F000C9CACBCCCDCED0D1D2D2D3D4D5D6D7D7F4
:10030000D8D9D9DADADBDBDBDCDCDCDCDCDDDDDD3B
:10031000DDDCDCDCDCDCDBDBDBDADAD9D9D8D7D737
:10032000D6D5D4D3D2D2D1D0CECDCCCBCAC9C7C6E4
:10033000C5C3C2C1BFBEBCBBB9B8B6B4B3B1AFAE22
:10034000ACAAA8A7A5A3A19F9E9C9A9896949290C8
:100350008E8C8A89878583817F7D7B7977757371A0
:100360006F6D6B6968666462605E5C5A595755537D
:1003700051504E4C4A4947454342403E3D3B3A3836
:1003800036353332302F2D2C2A292826252322FFDB
:10039000AA7F554000010101010101010101020292
:1003A0000202020202020203030303030303030423
:1003B00004040404040405050505050606060606EE
:1003C000070707070708080808090909090A0A0AA8
:1003D0000B0B0B0C0C0C0D0D0D0E0E0E0F0F0F104A
:1003E00010111111121213131414151516161717D4
:1003F000181819191A1A1B1B1C1D1D1E1E1F202040
:10040000212222232424252626272829292A2B2C89
:100410002D2D2E2F30313232333435363738393AAC
:100420003B3C3D3E3F404142434445464748494AA4
:100430004C4D4E4F50515354555658595A5B5D5E72
:100440005F616264656668696B6C6D6F707273750D
:1004500077787A7B7D7E8082838587888A8C8E8F71
:1004600091939596989A9C9EA0A2A3A5A7A9ABAD9F
:10047000AFB1B3B5B7BABCBEC0C2C4C6C9CBCDCF8D
:10048000D1D4D6D8DBDDDFE2E4E7E9EBEEF0F3F53B
:10049000F8FAFDFFFD377A585A000004E6D6B44654
:1004A0000200210116000000742FE5A3E0026101A3
:1004B0000B5D003D8889C65436C3174FE4E7E3B0AF
:1004C000AFE12EA3A4F0B76A4A605FEBF7B64F83A3
:1004D000C436B96805EFC5342DC0250422E4E7C34E
:1004E000D78F4D3621E9412D2409021784C84EA922
:1004F0004A37D576435118CD386660B31A09894E0C
:100500005C244B9FB1409F26517BB86038D7820254
:1005100036777CBE88DBA1B09FFAB96F3A5A9EBC91
:100520001AAB30DCDB2DB4E211083B46B724DBC844
:1005300070FE18D0A84C015FD88BA5C5A52A7B7288
:100540006A4564D2BA16589C05DBA2738FA3E9539F
:10055000C92837B4846D94B930E2F27C45374294AF
:1005600053E9BC341EB2CC8D89BD0EBA8230FA3745
:100570004BB6B628ECBCCEDFC26CE1F0A7E6380281
:1005800063C645246A90C78065305547E385E477A4
:100590004DDDD6A42CFA863342484A4DD5CF726D34
:1005A00009FEA12DF8F67998422DFA2C84DE3F1829
:1005B000BBB656DA9EFC9F6CA388DFDAE3790000B5
:1005C00063C853863E077D980001A702E20400003D
:1005D0008487F3C6B1C467FB020000000004595AC7
:1005E00000000000000000002A2B2800000000008E
:1005F00000000000000000000000002900000000D2
:100600002C1E3420212224342627252E362D37383F
:10061000271E1F202122232425263333362E373848
:100620001F0405060708090A0B0C0D0E0F10111206
:10063000131415161718191A1B1C1D2F3130232DD2
:10064000350405060708090A0B0C0D0E0F101112D0
:10065000131415161718191A1B1C1D2F3130354C81
:10066000000000000000000000000000000000008A
:10067000000000000000000000000000000000007A
:10068000000000007E0F00D4FFFFFFC700000078CD
:100690001C037600690061006C003A0066003600B9
:1006A00034006300320062003300630000000E0378
:1006B00056004F0049004400390031000000160385
:1006C0004C0061007A00790042006F006100720006
:1006D0006400730000000403090409025B000301C5
:1006E00000A0FA0904000001030101000921110121
:1006F00000012244000705810308000109040100EC
:100700000203000000092111010001222200070557
:1007100082032000010705030320000109040200F1
:100720000103000000092111010001226D000705ED
:100730008403200001120100020000000855F0347B
:10074000350001010203010660FF0961A101096290
:10075000150026FF00952075088102096315002603
:10076000FF00952075089102C005010980A101854F
:100770000319012AB700150126B7009501751081EC
:1007800000C0050C0901A101850419012AA0021568
:100790000126A002950175108100C005010906A17E
:1007A000018506050719E029E7150025019508755B
:1007B0000181020507190029EF1500250195F07543
:1007C0000181020508190129059505750191029518
:1007D0000175039101C005010906A101050719E092
:1007E00029E7150025019508750181029501750815
:1007F00081010507190029FF150026FF00950675E0
:1008000008810005081901290515002501950575C0
:10081000019102950175039101C011241FBECFEF14
:10082000DAE0DEBFCDBF11E0A0E0B1E0E8E7FEE630
:1008300002C005900D92A83FB107D9F723E0A8EFB9
:10084000B1E001C01D92A53DB207E1F70E94461537
:100850000C943A370C9400008830C0F46330B0F444
:100860004330A0F470E0FB01EE0FFF1FE60FF71F0F
:1008700099E0899FE00DF11D1124E40FF11DEE0FA9
:10088000FF1FE651FE4F85919491089581E090E01D
:1008900008958830A8F4623098F470E0680F711DF4
:1008A000680F711DFB01EE0FFF1F81E04827E40F69
:1008B000F11DEE0FFF1FE655FE4F859194910895AF
:1008C00081E090E008959C013A9521153F4130F573
:1008D000BC0166277270AC01442754709C0122272A
:1008E000387094FF0FC090FF02C080E101C080E02B
:1008F000672B09F08062452B09F08064232B79F087
:1009000080680895892F8170672B09F08260452BDC
:1009100009F08460232B19F08860089580E0089521
:10092000CF93DF93EB010E946304FE010995DF91F1
:10093000CF910895CF93DF93EC01805E91090897E2
:1009400010F0209719F461E077E002C06BE579E0E0
:10095000CE010E9490048C2F0E946F06DF91CF91F0
:100960000895CF93DF93EC010E94B506CE01805E1F
:100970009109089710F0209719F468E077E002C019
:1009800062E679E0CE010E949004DF91CF91089554
:1009900081E0089581E008950E94CA0408950E94AC
:1009A000CC0408950E94CA04089508950E94D504B5
:1009B0000895A6E0B0E0EFEDF4E00C94BD35498376
:1009C0005A839E833091FF0189819A81311115C02C
:1009D0003E81332359F0222349F00E94B80A182F90
:1009E000682F89819A810E94800A03C00E949B0A15
:1009F000182F69817A81812F04C00E94B80A698109
:100A00007A810E949E122696E3E00C94D935FC016F
:100A1000262F4081518162817381848195810E945A
:100A2000D9040895CF93DF93EC0161E00E9407059C
:100A3000BE010E94CF04DF91CF910895CF93DF9341
:100A4000EC0160E00E940705BE010E94D604DF9120
:100A5000CF91089581E008950E942A050895CF93CB
:100A6000C82F0E947B098C2F0E942C052FEF84E356
:100A70009CE0215080409040E1F700C00000CF9101
:100A8000089581E00E942F050E94D22D089580E0F4
:100A90000E942F050E94E32D08950F931F93CF937B
:100AA000DF93EC018B010E945528882329F061E037
:100AB000C8010E940705EC01F801858181110E949F
:100AC000F91CB801CE010E94DE29882309F45EC01A
:100AD000B801CE010E94C020882309F457C0B80194
:100AE000CE010E94D204882309F450C0B801CE017F
:100AF0000E948028882309F449C0B801CE010E94D1
:100B0000CF27882309F442C0B801CE010E946B268A
:100B10008823E1F1B801CE010E94191D8823B1F1AB
:100B2000B801CE010E942829882381F1F80185812E
:100B3000882341F1C330FCE7DF07D1F040F4C11551
:100B4000ECE7DE0791F0C130DC47A1F01BC0CB35EC
:100B50008CE7D807A9F0CC35ECE7DE0771F0CA3591
:100B6000DC4781F40E94D50F0DC00E9441050EC0E4
:100B70000E94DD0F0E94470509C00E94CB0F02C0F2
:100B80000E94D90FC8010E94C80401C080E0DF9113
:100B9000CF911F910F910895CF93DF93EC0161E006
:100BA0000E940705BE010E944D05DF91CF91089577
:100BB0000E94FC2C0E94FF0508950E9403060E94DB
:100BC000052D0895089581E008950895CF93DF934A
:100BD000D82F0E94E305C82F882319F08D2F0E947B
:100BE000E5058C2FDF91CF9108950895CF93C82FFD
:100BF0000E94E2058C2F0E94E605CF91089580E0C7
:100C00000E94F60508950E94792B0E94F60508952A
:100C1000CF930E94792BC82F8091FA01C81779F0E1
:100C2000C093FA010E94912D6093FB017093FC0127
:100C30008093FD019093FE018C2F0E94F605CF91C9
:100C40000895ADE0B0E0E7E2F6E00C94BC354887EB
:100C500059876A877B878C879D8791110E949B0E9D
:100C60008E010F5F1F4F87E0F80111928A95E9F717
:100C700086E0FE013896D80101900D928A95E1F741
:100C80008091A10382FF0CC00E945B0E882319F0A3
:100C900082E00E949F0F0E94420E81110E94D80E96
:100CA0008D8181110AC029813A814B815C816D81DE
:100CB0007E818F810E94BD0D05C0C8010E94120572
:100CC0008111F1CF2D96E4E00C94D835FC012481FC
:100CD000213021F4808191810E94E50A0895CF930B
:100CE000882309F440C0C82F8CEF8C0F813A98F408
:100CF0008C2F0E940123811136C08C2F0E94072C5B
:100D0000882329F08C2F0E94A72C0E94480F8C2F3B
:100D10000E94902C0CC080E28C0F883058F4C77071
:100D200081E001C0880FCA95EAF70E947B0E0E94FD
:100D3000480F19C0EBE5EC0FE33040F4F0E0E9595F
:100D4000FE4F808190E00E949F2B0DC0C85ACB318E
:100D500050F4EC2FF0E0EE0FFF1FEF5CFE4F8081B0
:100D600091810E94C42BCF910895882339F19CEF83
:100D7000980F913A18F40E94A72C0DC090E2980F9A
:100D8000983060F4877091E001C0990F8A95EAF776
:100D9000892F0E94810E0E94480F08959BE5980FAD
:100DA000933028F480E090E00E949F2B0895885AA9
:100DB0008B3120F480E090E00E94C42B08951F93B3
:100DC000CF93DF93182FEB010E946F06209741F01D
:100DD0008FE99FE00197F1F700C000002197F6CF5F
:100DE000812F0E94B506DF91CF911F91089589331D
:100DF00019F060E070E002C060E570E00E94DF067C
:100E00000895882321F00E947B0E0E94480F0895C8
:100E1000882321F00E94810E0E94480F0895A0E0CF
:100E2000B0E0E5E1F7E00C94B8356C01D62FC72FA0
:100E3000FC010581168112951F700E94710E882396
:100E4000F9F00023E9F08C2F807F803461F080E29C
:100E50008D0F8830A8F08C2F807E803221F4D23024
:100E600078F0112369F08091A10382FF09C082E02C
:100E70000E949F0F0E94710E91E0F82EF92601C08A
:100E8000F12CEC2EE2948FE0E8228E2D90E08C3055
:100E9000910508F0B2C1FC01EA5AFF4F0C9470357D
:100EA0008C2F807FCF70882311F0C295C07F0023E4
:100EB00099F0CC2309F48DC180E28D0F883010F0B9
:100EC000D11104C08C2F0E947B0E03C08C2F0E9476
:100ED0008E0E0E94480F7DC18D2F0E94B506CC2337
:100EE00009F48BC180E28D0F883040F1DD2331F1B0
:100EF0008C2F0E94940E25C08C2F807FCF70803263
:100F000011F0C295C07FDD2321F0D13009F447C034
:100F100050C08091A10382FD17C0002349F0CC236B
:100F200029F08C2F0E947B0E0E94480F80E052C156
:100F300080E00E94B506CC2309F45FC18C2F0E948B
:100F4000810E0E94480F59C10023A9F01123A9F175
:100F5000113021F48C2F0E94A80E4FC1153009F0DA
:100F60004CC18C2F0E9401078C2F0E94BF0E8C2F2A
:100F70000E945C0F42C1112341F0113009F03DC1C4
:100F80000E94780E8C2309F438C18C2F0E94080728
:100F90008C2F0E94BF0E8C2F0E94680F2EC1002341
:100FA00021F0163008F029C108C0153008F025C11D
:100FB00015C0002331F011110CC18C2F0E940107C4
:100FC0001CC1112359F0D93309F014C1FFEF27EEEA
:100FD00083E0F15020408040E1F70AC18C2F0E944D
:100FE00008070BC18C2F86958695837019F0813088
:100FF00061F003C1002321F08D2F9C2F937002C05C
:1010000080E090E00E949F2B00C1002321F08D2FF3
:101010009C2F937002C080E090E00E94C42BF5C02A
:101020008C2F837079F50111ECC04D2F42954695B8
:101030004770440F440F2D2F2F70042E01C0220F34
:101040000A94EAF7D4FF08C08FE090E001C0880F4F
:101050004A95EAF7809501C080E0C695C695C370B1
:10106000822BC23049F058F4C13019F00E94D209E5
:10107000C8C00E94CC09C5C00E94D809C2C00E9445
:10108000C909BFC0002319F08C2F817001C086955B
:10109000882309F4B6C04D2F429546954770440FFA
:1010A000440F2D2F2F70042E01C0220F0A94EAF74F
:1010B000D4FF08C08FE090E001C0880F4A95EAF79E
:1010C000809501C080E0C695C695C370822BC23062
:1010D00049F058F4C13019F00E941E0A92C00E94D3
:1010E000180A8FC00E94240A8CC00E94E10989C09E
:1010F000CF70002339F08C2F0E94F3098D2F0E94AE
:1011000001077FC08D2F0E9408078C2F0E94FF09C6
:1011100078C0D23F21F128F4D03F41F0D13FC1F057
:1011200054C0D33F19F1D43F79F04FC0002341F0B0
:10113000153008F062C08C2F8F710E940C0A5DC0C0
:10114000163008F05AC0F7CF8091A10382FD18C075
:10115000002339F08C2F8F710E94F3094EC00023B9
:10116000C9F38C2F8F710E94FF0947C0002329F01B
:101170008C2F8F710E94EA0940C00E94E6093DC091
:101180000023A9F00E94570E843039F40E94950F75
:101190008C2F8F710E94FF094CC0153008F049C098
:1011A000CF718C2F0E94F30963E08C2F07C015309C
:1011B00040F00E94950F64E08C2F8F710E94770F92
:1011C00038C081E00E949F0F34C0002331F011230A
:1011D00009F28D2F0E946F0610C0112311F2D9332E
:1011E00049F49FEFE7EEF3E09150E040F040E1F783
:1011F00000C000008D2F0E94B50688EF8E0D843050
:1012000020F40E94792B0E94F605FF20A1F00E9495
:10121000570E80FD10C0F60115820E94510E0E94EB
:10122000F309C6010E9438090E94510E0E94FF096D
:1012300002C0F12CE6CFCDB7DEB7E8E00C94D43590
:101240000F931F93CF93DF93EC01688179818D8198
:101250000E94F00A8C010E942A0A0E94BC09B8016F
:10126000CE010E940F07DF91CF911F910F9108953A
:10127000CF93DF93FC0124812223D1F0EC010E9463
:10128000CC0581110FC00E94710E882389F08D81D9
:10129000882371F08091A10382FF0AC082E00E943E
:1012A0009F0F06C0CE010E942009CE010E941E059C
:1012B000DF91CF910895882321F00E948E0E0E9425
:1012C000480F0895882321F00E94940E0E94480F31
:1012D000089580E090E00E949F2B80E090E00E94C3
:1012E000C42B0E949B0E0E94480F08950E94BE2CA2
:1012F0000E94690908950E94880E0E947609089547
:1013000092959F70963079F010F4925001C09A50E7
:10131000923068F4803F69F018F4883E40F409C0C8
:10132000843F29F406C0883E20F0813F11F080E020
:10133000089581E00895FC012481222339F0808101
:1013400091810E94E50A0E948009089580E0089535
:10135000A6E0B0E0EEEAF9E00C94BE352696E2E0B5
:101360000C94DA35A7E0B0E0E8EBF9E00C94BE3578
:101370002796E2E00C94DA35089508950E94BD099D
:1013800008950E94BE0908950E94C10980930A022F
:1013900008950E94C409089590910A02892B0E9421
:1013A000C409089590910A0289230E94C4090895EE
:1013B00090910A0289270E94C40908950E94BD09DC
:1013C00008950E94DE0980930902089580E00E943A
:1013D000E109089591E001C0990F8A95EAF7892FF4
:1013E0000E94E109089521E030E001C0220F8A95B2
:1013F000EAF780910902822B0E94E109089521E019
:1014000030E001C0220F8A95EAF720958091090209
:1014100082230E94E109089521E030E001C0220FFB
:101420008A95EAF78091090282270E94E1090895CE
:1014300090910902892B0E94E10908959091090277
:1014400089230E94E10908959091090289270E9449
:10145000E10908950895962F9770A1E001C0AA0FA1
:101460009A95EAF793E0769567959A95E1F7FB01EF
:10147000EE0FFF1F6E0F7F1FFA01E60FF71F40E010
:1014800050E0682F70E090819B01042E02C03695D9
:1014900027950A94E2F72170219529272A232927E5
:1014A00021934F5F5F4F4330510569F708959B01CA
:1014B000782F777043E0969587954A95E1F7FC0180
:1014C000EE0FFF1F8E0F9F1FF901E80FF91F40E07D
:1014D00050E080E0219130E0072E02C0369527953C
:1014E0000A94E2F721703327042E01C0220F0A94D8
:1014F000EAF7822B4F5F5F4F4330510559F708954C
:10150000282F903FB9F0862F622F933058F4233064
:1015100048F470E023E0929F600D711D112443E0B8
:1015200052E006C09C5F923028F470E040E052E048
:101530000E942B0A0895903FC9F0933070F48330D5
:1015400060F4282F30E063E072E0A901E3E09E9FA1
:10155000400D511D1124CA0106C09C5F923030F429
:1015600060E072E090E00E94570A089580E00895DC
:10157000CF92DF92FF920F931F93CF93DF936C0173
:101580000091090280910A02082BC7E0D0E010E028
:10159000C8010C2E02C0959587950A94E2F780FD4C
:1015A00004C02197A8F7F12C07C0FC2EB6018C2FA0
:1015B0000E94C7120197A9F38F2DDF91CF911F9140
:1015C0000F91FF90DF90CF900895CF93DF93EC01C0
:1015D0000E94B80ABE010E94C712DF91CF91089500
:1015E0001F93CF93DF93EB019091FF01992321F09B
:1015F000CB010E94E50A13C0882349F0CB010E9469
:10160000B80A182F682FCE010E94800A04C0CB01AF
:101610000E949B0A182FBE01812F0E94C712DF91E2
:10162000CF911F910895E1E0F0E0DF0102C0AA0F21
:10163000BB1F6A95E2F7BD01DF0102C0AA0FBB1F05
:101640004A95E2F7AD01462B01C0EE0F2A95EAF765
:10165000942F9823491302C08E2B0895E0958E2372
:101660000895242F462F682F809109020E94130BA2
:101670000E94E10908951F93CF93DF93C0910B025D
:1016800017E080910C02C817A1F0D0E01C9FF00178
:101690001D9FF00D1124E35FFD4F208131814281B8
:1016A00053816481758186810E94B2092196C77039
:1016B000E8CFDF91CF911F9108952091450230919D
:1016C0004602409147025091480260914902709150
:1016D0004A0280914B020E94B209089520910B02A8
:1016E00090910C0257E02917A9F030E0529FF001C9
:1016F000539FF00D1124E35FFD4F7181761306C0F7
:101700007081781303C07581741306C02F5F3F4F3B
:101710002770E9CF80E0089581E00895A0E0B0E06F
:10172000E4E9FBE00C94B93580914B0282958F700F
:1017300009F052C080914A02882309F44DC0C0913B
:101740000B0287E0D82E80910C02C81709F444C020
:10175000D0E0DC9E8001DD9E100D1124F801E35FD6
:10176000FD4F84818823A9F19181809146029813CD
:1017700030C090818091450298132BC085818111E2
:1017800028C0E280F3808091470290914802E81AD5
:10179000F90A60E085E492E00E94070565E472E0E2
:1017A0000E94A420E816F906A0F480914B028F70E5
:1017B000806180934B02F801ED5EFD4F80818F7058
:1017C0008061808385E492E00E9438090E943B0B8F
:1017D00003C02196C770B7CFCDB7DEB7E7E00C9452
:1017E000D535A4E1B0E0E7EFFBE00C94B1358C0116
:1017F00086E0F801DE011F9601900D928A95E1F7CF
:10180000F8017480E58085E4A82E82E0B82E8091EE
:10181000490281111CC0772009F44EC0EE2009F462
:1018200048C0C8010E949B09F82E882309F441C0D2
:1018300087E0F801A5E4B2E001900D928A95E1F706
:1018400085E492E00E9466060E948E0B8DC1F8012D
:1018500050806180C280D380F0904A02809147021C
:10186000909148024601881A990A60E085E492E066
:10187000FF2009F407C10E94070565E472E00E9499
:10188000A4208816990608F0A6C07720A9F08091B8
:101890004B02382F307F20914602F801918133238B
:1018A00071F0291709F465C0C8010E949B098111D4
:1018B00069C0C8010E943809FF24F39459C1291353
:1018C00016C0209145029081291311C0E1100FC06C
:1018D0008F70806180934B020E945D0B85E492E0E3
:1018E0000E94380980914B02F801868340C1E110C3
:1018F0003AC040E0662D852D0E946E0B40E0662DBB
:10190000852D0E946E0BE82E811131C15F86688A99
:101910008F8598890E94E50A292F22952F702430FF
:1019200020F49F70223028F009C02A50223080F025
:1019300014C0992349F0811107C013C0992321F0E5
:10194000F8019681907F69F0805E883030F409C09C
:10195000803F38F0815F833020F0C8010E94380951
:10196000EF2CFE2C05C180914B02816080934B02CD
:10197000FEC020914502F8019081291395CFE11016
:1019800093CFBFC0EE2009F494CF20914B02822F59
:1019900082958F7090E002978CF080914502909133
:1019A000460299878887DB86CA86809149028C87A0
:1019B0001D862E87CE0108960E94380987E0F8011F
:1019C000A5E4B2E001900D928A95E1F70E948E0B9A
:1019D0000E945D0B71CF80914B02982F907FB1F4E4
:1019E0006C2DDA8AC98A452D562D7A89872D9E2D30
:1019F0000E94A80985E492E00E94380987E0F50179
:101A000011928A95E9F70E945D0BB1C0772009F425
:101A100053CF20914602F8019181291311C02091E2
:101A20004502908129130CC0E1100AC08683C801C9
:101A30000E94380987E0F50111928A95E9F798C06C
:101A4000C8010E949B09882309F433CFEE2009F4D2
:101A500030CF20914B02822F82958F7090E00297B9
:101A60000CF4ACCF80914502909146029A83898311
:101A7000DC82CB82809149028D831E822F83CE012E
:101A800001969ACF0E94070565E472E00E94A420A7
:101A90008816990608F059C0772009F40DCFFE2C5E
:101AA000EE2009F406CF90914602F8018181981347
:101AB0003EC0909145028081981339C080914702C1
:101AC00090914802C81AD90AF8ECCF16D10430F523
:101AD00080914B0280FD22C082958F70482F50E08C
:101AE00041155105D9F020914B02F80126834F3062
:101AF000510541F08F5F982F9295907F822F8F70C4
:101B0000892B8683C8010E94380987E0F801A5E483
:101B1000B2E001900D928A95E1F726C087E0F801C6
:101B2000A5E4B2E001900D928A95E1F721C0C801C9
:101B30000E949B09811142CF80914B02816080936A
:101B40004B02C8010E94380913C06C2DDA8AC98A79
:101B5000452D562D7A89872D9E2D0E94A80987E054
:101B6000F50111928A95E9F70E945D0B01C0F12CF5
:101B70008F2D6496EFE00C94CD35AEE0B0E0E3EC51
:101B8000FDE00C94BD35288739874A875B876C87D1
:101B90007D878E87CE0108960E94F10B882361F025
:101BA0006C856623A9F1288539854A855B857D8505
:101BB0008E850E94B2092CC087E0FE013896DE01B6
:101BC000119601900D928A95E1F76C85662301F1DB
:101BD00020910C0230E0C90101968770992740914D
:101BE0000B0250E084179507E1F16D8397E0929F17
:101BF000D001939FB00D1124A35FBD4FFE0131961C
:101C000001900D929A95E1F780930C020E943B0B94
:101C100017E080910B0290910C02891779F1189FBF
:101C2000C0011124835F9D4F0E94F10B882331F185
:101C3000E0910B021E9FF0011124E35FFD4F208114
:101C40003181428153816481758186810E94B2090C
:101C500080910B0290E001968770992780930B0288
:101C6000D8CF0E947B0910920C0210920B02E5E47F
:101C7000F2E087E0DF011D928A95E9F72E96E3E016
:101C80000C94D9350E94852D2091770230917802ED
:101C9000821B930B9C0181E02838334108F480E0DB
:101CA000089580917602869586958695089580910F
:101CB0007602877008950E94852D209174023091DC
:101CC0007502821B930B8838934140F08091760215
:101CD00082FB882780F991E0892701C080E081702C
:101CE000089590917602977081E009F480E008955C
:101CF0008091A40208959091A402892B8093A4025C
:101D0000089580959091A40289238093A402089558
:101D10001092A40208958091A30208959091A302C5
:101D2000892B8093A302089580959091A302892323
:101D30008093A30208951092A302089580917A02DD
:101D4000089508950E94A10E08950E94A20E08957C
:101D5000CF9390917A029823891779F0C82F0E9427
:101D6000852D909378028093770280917A028C2B54
:101D700080937A028C2F0E94A50ECF9108959091A6
:101D80007A02292F282399F08095892380937A025B
:101D9000882319F00E94852D02C080E090E0909386
:101DA00078028093770280917A020E94A50E0895AE
:101DB00080917A02882349F010927A021092780278
:101DC0001092770280E00E94A50E0895CF93C091F3
:101DD000A4028091A302C82B80917A02882369F023
:101DE0000E94420E81110E94D80E80917A02C82B67
:101DF0000E94E92B81110E94D80E8C2FCF9108955B
:101E0000CF93DF93C0910601D09107010E94E60EA7
:101E10008883C0910601D091070148E050E06CE64C
:101E200072E0CE010E948E36892B59F088E0FE01C7
:101E3000ACE6B2E001900D928A95E1F7CE010E94E6
:101E4000862BDF91CF910895CF93DF93C09104014A
:101E5000D09105010E94E60E8983C0910401D091C2
:101E6000050140E250E06CE472E0CE010E948E3643
:101E7000892B59F080E2FE01ACE4B2E001900D92B2
:101E80008A95E1F7CE010E94912BDF91CF910895C1
:101E900080912801882339F08091A00387FF03C037
:101EA0000E94240F08950E94000F08950E94A10E21
:101EB00008950E94560F089590917902292F2823A2
:101EC000821729F0892B809379020E94590F089577
:101ED00090917902292F282331F0809589238093CE
:101EE00079020E94590F08950E94A10E08959091C1
:101EF000A10392FF17C098E0899F90011124262B1F
:101F0000209376020E94F3090E94852D909375021A
:101F100080937402809176028695869586950E94BC
:101F2000740F08950E94F30908951092760210929A
:101F300075021092740280E00E94740F08959091CF
:101F400076028095892380937602282F277069F482
:101F5000981759F09091A10392FF07C08695869536
:101F600086950E94FF090E94950F08959091A10304
:101F700092FB222720F9281769F080FB92F99093B1
:101F8000A1038091A0039091A1030E94FF0F82E022
:101F90000E949F0F08958091A10382FB882780F9FA
:101FA00091E089270E94B60F089581E00E94B60F44
:101FB000089580E00E94B60F08956FEF7FEF80E0F4
:101FC00090E00E94FD36089580E090E00E94C936BE
:101FD000863E9E4F19F40E947329089580E008956B
:101FE00082E090E00E94BB36089583E090E00E947A
:101FF000BB36089584E090E00E94C9360895BC0184
:1020000084E090E00E94FD360895AB01BC018FE0B2
:1020100090E00E94F1360895AB01BC0183E190E0AD
:102020000E94F136089560E070E0CB010E940C1030
:10203000089560E070E0CB010E9405100E9413102B
:102040000895A8E0B0E0E7E2F0E10C94BE3566EE5A
:102050007EEF80E090E00E94FD3660E082E090E05C
:102060000E94DF3681E080930A0261E083E090E025
:102070000E94DF3660E074E184E090E00E94FD366B
:1020800060E086E090E00E94DF366FEF87E090E04E
:102090000E94DF3640E050E0BA0188E090E00E9404
:1020A000F13660E084E290E00E94DF3660E087E194
:1020B00090E00E94DF3660E08CE090E00E94DF3626
:1020C00060E08DE090E00E94DF3619821A821B8268
:1020D0001C821D821E821F82188648E050E068E143
:1020E00070E0CE0101960E94CF3640E050E0BA0188
:1020F00080E290E00E94F13680E00E948C290E94EC
:10210000C1290E9419102896E2E00C94DA350E9449
:1021100021100895A6E0B0E0E0E9F0E10C94BC35B0
:102120000E94852D8C018091A5029091A60208172E
:10213000190781F019821A820E94852D682F498122
:102140005A81792F80E090E00E9421061093A60228
:102150000093A5022696E4E00C94D8350E94912DB8
:102160006093B2027093B3028093B4029093B5026D
:102170006093AE027093AF028093B0029093B1026D
:1021800008950E94912D6093B2027093B3028093E0
:10219000B4029093B5026093AA027093AB0280934D
:1021A000AC029093AD02089581E0089581E0089516
:1021B0000E94D610089508950E94DB1008950E9491
:1021C000DB1008950E94DF1008950E94DB1008952F
:1021D0000E94E51008950E94DB10089587EB93E1BB
:1021E0000E9453150E94B31D0E94EB100E94E8103C
:1021F00008950E94DC100E94DB1008950E94D31302
:102200000E94F50508950E947C2D0E94D1290E940C
:1022100016210E94A8140E94FE100E940B1C0E940E
:10222000E2100895A6E0B0E0E8E1F1E10C94B535E4
:102230000E94D410811103C00E948A1053C00E94D2
:10224000BE1487EAE82E82E0F82E670100E0F6016E
:1022500011916F01802F0E94031481270F5F0330BB
:1022600019F08823A1F302C0882331F38091B602CC
:1022700081FD0E9409140E94D810A82E10E0992414
:102280009394812F0E940314B82EF701C080C826B2
:1022900009F100E0DD24D3948C2D8D21A9F0AA2032
:1022A00099F009831A830E94852D9C838B839D82DC
:1022B00091E08B2D8D2109F490E049815A816B8149
:1022C0007C818D810E9421060F5FDD0C033021F798
:1022D000F701B0821F5FFFEFEF1AFF0A133089F694
:1022E0000E94AE100E94EC280E94FA1C0E948D21D0
:1022F00081110E94C1100E9408062696EBE00C9402
:10230000D1351F93CF93DF930E94CC12EC01C115FE
:1023100080E5D807E8F5C11590E4D90708F0A8C012
:10232000C03ED10530F5CD3CD10508F094C0C83A87
:10233000D10578F4C53AD10508F083C0C130D10584
:1023400009F47CC008F4F2C0C430D10508F0F1C033
:10235000EDC0C33CD10508F0E9C0C85AD0E0CC0FAD
:10236000DD1FC659DE4F0990D881C02DCE0194647F
:10237000E1C0C11580E2D80708F0CBC0C11591E0DB
:10238000D90708F06BC0C83ED10508F4D2C0CEC052
:10239000C03682E5D80728F5C03492E5D90708F0A1
:1023A00079C0C03282E5D80708F06CC0C11592E54B
:1023B000D90708F481C04C2F4695469580E2489F86
:1023C000A0011124C37021E030E0C90102C0880FD0
:1023D000991FCA95E2F7EA01C82BD92BCE019D6857
:1023E000A9C0C03A82E5D807B8F48C2F8F71C038E5
:1023F00092E5D90708F07BC08695869590E2899F83
:1024000090011124C37081E090E002C0880F991FF1
:10241000CA95E2F79A6868C0C03C82E5D80708F41C
:102420006DC0C03E92E5D90708F080C0CF71DD27AE
:10243000DC2FCC27CE01806F906A7CC081E090E0D9
:1024400079C0C55AD0E0C056DE4F8881C82FD0E091
:10245000CE0190646FC0CE0190656CC08D2F0E943C
:102460006813182FCE0199270E94CC121F715CC0EF
:10247000CE0199270E94CC12CC27DF70D06A8C2B1A
:102480009D2B58C0CF71D0E0DC2FCC27CE01816FBF
:10249000906A50C08C2F8F718695869590E2899FA7
:1024A00090011124C37081E090E002C0880F991F51
:1024B000CA95E2F79C6818C08C2F8F710E94681330
:1024C00095E0D695C7959A95E1F7CF70D0E0DC2FCF
:1024D000CC27282F30E084FF05C084E0220F331F73
:1024E0008A95E1F7D069CE01822B932B23C090E02F
:1024F000D82FCC27CE01846F906A1CC08C2F8F718F
:102500000E9468138F7190E0D82FCC27CE01906283
:1025100011C08D2F8F710E946813182FCE0199273B
:102520000E94CC121F719062912B04C080E090E059
:1025300001C0CE01DF91CF911F91089520917A03C0
:1025400030917B03232B01F5703F39F4603FE1F4B8
:102550008091C2039091C3030895733038F46330BF
:1025600098F4462F672F0E94392508957D3F21F466
:10257000623050F441E005C07C3F31F4623020F419
:1025800040E00E944525089580E090E008950E9473
:102590009E120E94811108958238910569F1B0F46C
:1025A0008133910509F475C048F48932910509F425
:1025B00067C08A32910509F471C008958533910589
:1025C00009F459C089339105B9F00895833E910506
:1025D00089F138F4803E9105D1F0823E910529F1D0
:1025E0000895863E9105C9F1873E9105D9F1843E53
:1025F000910509F06CC027C02091A00320FD57C0B1
:1026000021FD55C02091A10323FD5BC00895809159
:10261000A00380FD48C08091A10380FF48C0809145
:10262000A00384FD46C083EE51C08091A00382FFC9
:102630003CC0F5CF8091A00382FD37C08091A103FB
:1026400080FD35C0ECCF8091A10381FF36C0809121
:10265000A00384FD2EC087EE39C08091A00383FFC4
:102660002AC0F5CF8091A00383FD25C08091A103EE
:1026700081FD23C0ECCF8091A00385FD22C01FC047
:102680008091A00385FD1BC08091A10383FF19C029
:102690000AC08091A00386FD16C017C08091A003D8
:1026A00086FD13C010C089E311C082EE0FC080EE1A
:1026B0000DC080E00BC086EE09C084EE07C085E344
:1026C00005C089E203C08AE201C081E390E0089579
:1026D0009091A00392FF10C041E0282F2471243074
:1026E00009F040E031E0282F2871283009F030E06F
:1026F000431711F02CE0822793FF10C041E0282FF0
:102700002471243109F040E031E0282F287128316C
:1027100009F030E0431711F02CE082273091A1033B
:1027200030FF10C051E0282F2171213009F050E016
:1027300041E0282F2871283009F040E0541711F0AB
:1027400029E0822731FF10C041E0282F217121317B
:1027500009F040E031E0282F2871283109F030E0FD
:10276000431711F029E0822794FD877E089580E0C9
:1027700008950E94DD0F08950E94BE148FE39CE926
:102780000197F1F700C000000E94BE1480E00E9493
:10279000031480FF04C00E94B9130E94D22D089533
:1027A0000E94BC1308950E94E40F811102C00E9490
:1027B00087100E94F00F8093B6020E94FA0F909348
:1027C000A1038093A0030E94D0130E94F50F0E94E2
:1027D000C909809109020E94DE090895E82FF0E0FE
:1027E000EB55FC4F2081822F90E021E030E002C0C9
:1027F000220F331F6A95E2F72823392381E0232B28
:1028000009F480E00895E82FF0E0EB55FC4F80815B
:102810000895089580EA8A95F1F7089500C0089513
:102820000E940A14089508950E94131408950E94A6
:10283000141408950E94131408950E941A14089500
:10284000F894E82FE295EF70F0E031A1282F2F7077
:1028500081E090E001C0880F2A95EAF7982F9095C3
:10286000932391A392A1892B82A37894089586EF54
:102870000E94201485EF0E94201484EF0E942014EF
:1028800081E90E94201480E90E94201484E90E94BA
:1028900020140895A0E0B0E0E0E5F4E10C94B83530
:1028A0008C01C62FD0E0CE018A559E4F7C01FC01E1
:1028B00090819F3F09F447C0D62EF894E92FE29506
:1028C000EF70F0E081A19F7021E030E001C0220FA5
:1028D0009A95EAF7822B81A382A12095282322A32F
:1028E00078940E940E14E3EAF1E046EA51E031E008
:1028F000C12C21912F3F89F0A22FA295AF70B0E09B
:1029000090968C9190E02F7002C0959587952A95AE
:10291000E2F780FD02C0832F01C080E0C82A330F98
:102920004E175F0731F7F70180818F3F11F00E944A
:10293000201461E0C11001C060E08D2D0E941014D0
:10294000C00FD11FC882CDB7DEB7E8E00C94D435F4
:102950000E94371483E0E5EAF3E0DF01982F1D922F
:102960009A95E9F7E2EAF3E0DF011D928A95E9F72B
:1029700083E00E94FD140E941D140895A3E0B0E0BE
:10298000E4ECF4E10C94BD3519821A821B8260E0FC
:10299000CE0101960E944A1461E0CE0101960E9488
:1029A0004A1462E0CE0101960E944A1443E050E0CE
:1029B000BE016F5F7F4F82EA93E00E948E3621E076
:1029C000009709F420E0892B49F089819A81AB8135
:1029D0008093A2039093A303A093A40343E065EA2A
:1029E00073E082EA93E00E94FE14182F0E941714ED
:1029F000812F2396E3E00C94D9350895EF92FF924E
:102A00000F931F93CF93DF937C018B01C42F22235D
:102A100051F081E08093B9020E94852D9093B80215
:102A20008093B70204C08091B902811102C080E096
:102A30001AC08091B7029091B8020E949D2D05970F
:102A4000B0F3D0E0AE01B701C8010E948E36892BE9
:102A500039F0AE01B701C8010E949B3681E001C088
:102A600080E01092B902CDB7DEB7E6E00C94D6351F
:102A70000E94632F0E9403110E94702F08950E94EC
:102A8000752F0E9412110E948F2F08950E941C2DF5
:102A90000E94492F0E94EE100E9438150E943F1597
:102AA0000E94F910FBCF9093F9018093F8010895EB
:102AB000EF92FF920F931F93CF93DF938B01682FB9
:102AC00011110AC0442329F0E82FF0E0EC56FC4F26
:102AD0006491762F862F75C0212F30E0E82FF0E02B
:102AE000442321F0EC56FC4FE491F0E046E0049FD3
:102AF000C0011124CFEFD0E0BE010E9426354BEA81
:102B00004603C001479F900D1124800F911D800F37
:102B1000911D982F990F890FAE01421B530B4E9FA9
:102B2000D0014F9FB00D5E9FB00D11249B2F189FB9
:102B3000A0011124452F55278E01041B150B0E9F54
:102B4000A0010F9F500D1E9F500D11247E01E81A09
:102B5000F108E29E8001E39E100DF29E100D1124FB
:102B6000212F3327C21BD30BCE9F9001CF9F300D57
:102B7000DE9F300D112462307105A9F048F4611513
:102B8000710569F061307105C9F48B2F752F0DC087
:102B90006430710581F058F06630710579F47E2F4C
:102BA0008B2F932F0DC0832F7B2F9E2F09C08E2F2D
:102BB0007B2F952F05C08E2F732F02C07E2F852F60
:102BC000692FCDB7DEB7E6E00C94D63541E00E9420
:102BD0005815089508950E94E6150895CF93DF9340
:102BE000762FE901682F842F0E94EB157983688383
:102BF0008A83DF91CF9108958091A803282F26958D
:102C0000269530E02115310519F48370846005C0E4
:102C10002B32310524F08370886A8093A8030895CD
:102C2000A0E0B0E0E6E1F6E10C94B83588E090E091
:102C30000E94C3366B017C0184E290E00E94BB36A7
:102C4000282F30E040E050E060E070E080E090E06D
:102C500000E20E94E535B22FA32FF42FE52FD62FE7
:102C6000C72F97018601BC29A12BF22B5E2F532B76
:102C70002B2F3A2F4F2F6D2F7C2FCDB7DEB7E8E0EB
:102C80000C94D435A0E0B0E0E8E4F6E10C94B4355F
:102C900049015A016B017C010E94FC158401A401C9
:102CA0006A2D7B2D88E090E00E94F13694014A2D38
:102CB0005B2DB601C70100E20E940036622F84E25C
:102CC00090E00E94DF36CDB7DEB7ECE00C94D03553
:102CD000E8EAF3E02081318142815381648175818A
:102CE000868197810E9442160895E8EAF3E025E084
:102CF000208311828FEF828383831482758130E079
:102D00004FEF5FEF60E0868197810E944216089541
:102D10008091A80380FF03C086958695089580E082
:102D200008959091AC03933018F49F5F9093AC0397
:102D3000882391F02091A8033091A9034091AA0320
:102D40005091AB036091AC037091AD038091AE03E1
:102D50009091AF030E944216089581E00E9491165F
:102D600008959091AC03992319F091509093AC037E
:102D7000882391F02091A8033091A9034091AA03E0
:102D80005091AB036091AC037091AD038091AE03A1
:102D90009091AF030E944216089581E00E94B116FF
:102DA00008958091AC0308958093AC03662389F065
:102DB000682F2091A8033091A9034091AA03509154
:102DC000AB037091AD038091AE039091AF030E946D
:102DD0004216089560E00E94D41608958091A903D8
:102DE00008958091AA0308958091AB03089570E03F
:102DF0000E945822089560910C018091A80380FFE1
:102E00000BC080910B0123E0829FC00111248055EB
:102E10009C4F0E94F716089580910D0190910E012C
:102E2000891778F7E82FF0E09F01220F331FE20F98
:102E3000F31FE055FC4F1182108212828F5FF0CF9A
:102E40009091A80390FF16C090910D0120910E0162
:102E5000921770F4E92FF0E0DF01AA0FBB1FEA0F11
:102E6000FB1FE055FC4F8183608342839F5FF0CF5F
:102E70000E94FB160895A3E0B0E0E1E4F7E10C94B2
:102E8000BE359091A80390FF0AC09E012F5F3F4F6F
:102E90000E94EE154B8169818A810E94201723963A
:102EA000E2E00C94DA35CF93DF93EC01EC81F0E0B3
:102EB000E157FD4F4491E8EAF3E0628181810E948D
:102EC0003B178C818F5F8C83DF91CF910895CF93D7
:102ED000DF93EC01E8EAF3E0438162818C810E9498
:102EE0003B178C818F5F8C83DF91CF910895A3E096
:102EF000B0E0EDE7F7E10C94BC358C018091BA02AB
:102F000081110AC09E012F5F3F4F4FEF6FEF0E946C
:102F1000EE158A818093BA02F8018481813051F0E4
:102F200028F0823061F44091BA020AC08091BA025E
:102F300040E007C06091BA0240E080E003C040E09A
:102F400080E060E00E942017F801848190E0019603
:102F500063E070E00E943A3584832396E4E00C94A9
:102F6000D835A3E0B0E0E7EBF7E10C94B735082FD4
:102F7000E62EF42ED22E9091A80390FF6CC0E92F7C
:102F8000E695E695AE2FB0E0A755BE4F8C918093A5
:102F9000E2029C7F943061F49E012F5F3F4F802FAF
:102FA0000E94EE154B8169818A810E9420173DC0E5
:102FB000823019F4F090AB0338C0863019F40091D8
:102FC000A90333C08930D9F3893179F5E9518E2FBE
:102FD0008170C82EE695F0E0E157FC4F1491B12CBA
:102FE00060910F01B616F8F4B19EC001112470E093
:102FF0000E942635802FC11002C0860F01C0861B9B
:1030000090910D012B2D30E0290F311DA901440FA6
:10301000551F240F351F20553C4F4F2D6E2D0E94FC
:10302000EE15B394DDCF0E94FB160093A903E09246
:10303000AA03F092AB03DD2071F02091A803609108
:10304000AC037091AD03302FA7018091AE03909136
:10305000AF030E9442162396E9E00C94D335E8EAC8
:10306000F3E09181282F4381628188E0890F0E94DB
:10307000B117089581E00E942F180895E8EAF3E05F
:103080009181282F4381628188EF890F0E94B117B7
:10309000089581E00E943E180895E8EAF3E0628115
:1030A00021E1620F08F46FEF282F438181810E9494
:1030B000B117089581E00E944D180895E8EAF3E001
:1030C000628121E1621B08F460E0282F4381818145
:1030D0000E94B117089581E00E945E180895E8EA01
:1030E000F3E0438121E1420F08F44FEF282F628182
:1030F00081810E94B117089581E00E946F180895A0
:10310000E8EAF3E0438121E1421B08F440E0282F84
:10311000628181810E94B117089581E00E94801828
:10312000089520E00E94B1170895FF920F931F9316
:10313000CF93DF93EC01F12C0FEF10E060910F01C2
:10314000F616F0F480910D012F2D30E0280F311D7F
:10315000C901880F991F280F391F20553C4F70E077
:10316000C8010E943A35962F8C814091AB03609143
:10317000AA03F99E800D11240E94EE15F394DECF70
:103180000E94FB169A818C8190FF02C08F5F01C064
:1031900081508C83CDB7DEB7E5E00C94D735A0E045
:1031A000B0E0E5EDF8E10C94B635FC01828180FFDA
:1031B00002C00FEF01C001E010E046E0A42E8091B4
:1031C0000F01181708F043C080910D01C12ED12CBA
:1031D000E601C80FD11DCE01880F991FC80FD91F56
:1031E000C055DC4F198218821A8234E0E32EF12C8C
:1031F000B12C8091BC028B0D87302CF06A2D0E947F
:103200001835892F05C087FF03C090910F01890FE2
:10321000082E000C990BC816D90691F48091AB03C7
:103220008E9DA0018F9D500D112455954795559564
:1032300047959E016091AA038091A9030E94EE1513
:10324000B00EF1E0EF1AF108A1F61F5FB8CF0E94AF
:10325000FB168091BC02013031F4811102C08091D3
:103260000F01815007C090E0019660910F0170E05E
:103270000E943A358093BC02CDB7DEB7EAE00C94E9
:10328000D235CF9380910D0190910E01891770F482
:10329000E82FF0E09F01220F331FE20FF31FE055EC
:1032A000FC4F1182108212828F5FF0CFC0E06091DC
:1032B0000F01C617C0F5EC2FF0E070E0CF010E94BF
:1032C0003A3520910D01820F2091BB02022E000C95
:1032D000330B90E0E217F307CCF020910A01022EA5
:1032E000000C330B2E173F078CF09C01220F331F6D
:1032F000820F931F9C0120553C4F4091AB0360917E
:10330000AA038091A9030E94EE150BC0FC01EE0FE9
:10331000FF1F8E0F9F1FFC01E055FC4F1182108292
:103320001282CF5FC4CF0E94FB16209109018091C9
:10333000BB02820F8093BB0290910A01920F90937F
:103340000A0119165CF4082E000C990B40910F012C
:1033500050E041505109841795071CF021952093A6
:103360000901CF910895A0E0B0E0E9EBF9E10C94F8
:10337000B4358C01FC014481C42FD0E09E01DE01F4
:103380000E9485359B01AC010E949B356B017C013D
:10339000E0E2F0E0EC1BFD0BA5E5B0E09B01AC0129
:1033A0000E949B354B015C019F01DF010E947D352E
:1033B0009B01AC010E94A6359B01AC012C0D3D1D6B
:1033C0004E1D5F1DC501B4010E944E35C22FD22F84
:1033D0002A3228F4F3E02F9F900111240DC025E537
:1033E00030E02C1B3109C901880F991F280F391FA4
:1033F00037FF02C02F5F3F4F35952795C22FC095ED
:10340000F12C85E5E82EED1A80910F01F816C8F42D
:10341000F1FC02C08E2D01C08D2F90910D012F2D3A
:1034200030E0290F311DA901440F551F240F351F0E
:1034300020553C4F4C2F6091AA030E94EE15F39447
:10344000E3CF0E94FB16F8018481811102C091E054
:1034500003C0803219F49FEF909308019091080106
:10346000890FF8018483CDB7DEB7ECE00C94D0353A
:103470000F931F93CF93DF93EC0100E010E0809156
:103480000F01282F30E00217130724F590910D014A
:103490009801290F311DA901440F551F240F351F15
:1034A00020553C4F869590E04C81081719071CF475
:1034B000442331F002C0411103C04091AB0301C06D
:1034C00040E06091AA038091A9030E94EE150F5F6E
:1034D0001F4FD5CF0E94FB168C8190E00196817022
:1034E00099278C83DF91CF911F910F9108952F928F
:1034F0003F925F926F927F928F929F92AF92BF9214
:10350000CF92DF92EF92FF920F931F93CF93DF93AF
:10351000FC016280548081E08483EFE8F2E07490E3
:10352000EEE0F3E0E491C091AB03C695C158D0E062
:10353000CC0FDD1F2D2E3324812C75E0972EAA246D
:10354000AA94B12CE719EE2EF12C80910F01881668
:1035500008F098C0C82CD12C22E0261568F09C9C5D
:10356000F0019D9CF00D1124E354FD4F8091A903BF
:1035700080838091AA03818351100AC09C9CF00132
:103580009D9CF00D1124E354FD4F1382128260C004
:103590009C9C80019D9C100D1124E801C354DD4FBB
:1035A0008B818823F9F081508B832FEF829FC0019C
:1035B00011246C8170E00E942635FB01FF27E15742
:1035C000FD4F8491E82FE7192FEFE29FC0011124EE
:1035D000B7010E9426358091AB03689FB00111248A
:1035E0007A8336C00E946836B5010E943A3582154A
:1035F000930574F582E0861588F40E946836B5015B
:103600000E943A3588830E9468362091AA03269545
:10361000622F70E00E943A35280F29839C9CF001AC
:103620009D9CF00D1124E354FD4F12828091AB0359
:10363000843120F0893C18F088EC01C084E19C9C26
:10364000F0019D9CF00D1124E354FD4F848383838E
:1036500080910D019601280F311DC901880F991F16
:10366000280F391F20553C4F9C9CF0019D9CF00D6C
:103670001124E354FD4F4281618180810E94EE1547
:10368000839463CF0E94FB16DF91CF911F910F911E
:10369000FF90EF90DF90CF90BF90AF909F908F9072
:1036A0007F906F905F903F902F900895E8EAF3E04D
:1036B00020812E7F208331814281538164817581F5
:1036C000868197810E9442161092E3020E94FB16A7
:1036D0000895E8EAF3E080818E7F80831092E30210
:1036E0000E94FB1608956091A8036695669570E0A8
:1036F0004BE050E080E191E00E948136892B19F483
:1037000081E08093E3020E94852D9093DC028093F8
:10371000DB0208959091A80390FF3FC09370811140
:1037200002C0946007C08B3210F0986A03C0880F03
:10373000880F982B9093A803662391F02091A803FB
:103740003091A9034091AA035091AB036091AC035F
:103750007091AD038091AE039091AF030E94421629
:103760006091A8036695669570E04BE050E080E1BB
:1037700091E00E948136892B19F01092E30202C079
:103780000E94731B81E08093DE024091AB03609145
:10379000AA038091A9030E9491180895682F90911F
:1037A000A8039695969581E0890F8B3208F081E009
:1037B0000E948A1B089581E00E94CE1B0895682F05
:1037C0009091A803969596958FEF890F09F48AE258
:1037D0000E948A1B089581E00E94DF1B089561E02A
:1037E0000E948A1B0895E8EAF3E08081816080836B
:1037F000869586950E94EF1B08958091A80380FF0F
:1038000003C00E94561B08950E94F31B089560E0B8
:103810000E948A1B08958091E10281113FC00E949D
:10382000E40F811104C00E9487100E9475160E9447
:1038300010162093A8033093A9034093AA03509332
:10384000AB036093AC037093AD038093AE0390938E
:10385000AF032C7FA1F40E9475160E9410162093CE
:10386000A8033093A9034093AA035093AB0360933A
:10387000AC037093AD038093AE039093AF030E94AB
:10388000FC151092E3028091A80380FF04C0869586
:1038900086950E94071C81E08093E1020895E8EA82
:1038A000F3E0808181608083869586950E94071C65
:1038B00008950F931F93CF93DF938091E3028823A2
:1038C00009F492C08091E202E091A803E695E695A2
:1038D000E81BE093DD02823049F4F0E0E557FD4F4C
:1038E000E491CE2FD0E003E517E159C0863049F4CA
:1038F000F0E0E857FD4FE491CE2FD0E007E617E166
:103900004EC0893051F4E695F0E0EB57FD4FE4915D
:10391000CE2FD0E005E918E142C08F3051F4E69592
:10392000F0E0EE57FD4FE491CE2FD0E00FEC18E120
:1039300036C0853149F4F0E0E158FD4FE491CE2FD7
:10394000D0E001E419E12BC08831D9F0833239F499
:10395000EDE7F2E0C591D49107E717E120C084328A
:10396000A9F08532C1F48E2F63E00E940C35E92F57
:10397000F0E0E658FD4FE491CE2FD0E007E71AE1E2
:103980000EC0C8E2D0E003EB19E109C0C4EFD1E0FA
:1039900008E31AE104C0C0EDD7E00AEE15E180911A
:1039A000DE02882361F01092DE020E94852D909342
:1039B000DC028093DB021092E0021092DF020E9490
:1039C000852DE091DB02F091DC028E1B9F0B8F3F77
:1039D0009F4750F4EC0FFD1FF093DC02E093DB02F5
:1039E0008BED92E0F8010995DF91CF911F910F9136
:1039F000089508950E94591C0895882311F0FA0132
:103A000001C0FB0109950895CF93DF93C82FD62FEE
:103A10000E9488168C1738F00E9488168D1718F4AB
:103A20000E94DB1B03C08C2F0E94EF1BDF91CF9104
:103A300008951F93CF93DF93FB011581111166C089
:103A4000EC010E94780E8272FE01E052F847E531E7
:103A5000F10508F05AC0EE59FF4F0C9470350E94E2
:103A6000FD1B54C04BEE5BE16BED7BE104C04BED05
:103A70005BE16BEE7BE10E94FD1C48C049E458E12C
:103A80006AE378E1F8CF4AE358E169E478E1F3CFFB
:103A90004BE658E16AE578E1EECF4AE558E16BE69E
:103AA00078E1E9CF4DE858E16CE778E1E4CF4CE705
:103AB00058E16DE878E1DFCF4DEC56E16DEA76E153
:103AC000DACF4DEA56E16DEC76E1D5CF81E015C055
:103AD00065E082E017C068E086E014C06EE089E02F
:103AE00011C064E18FE00EC067E185E10BC088E1A1
:103AF00004C062E289E106C083E20E94EF1B06C0B7
:103B00006AE285E20E94041D01C011E0812FDF916D
:103B1000CF911F91089581152CE7920759F4809158
:103B20007C0390917D03892B19F480E090E0089547
:103B300080E09CE70895E4EEF2E080E090E06DE73D
:103B400070E243E050E22AEA3FE1778366835187DF
:103B500040873387228797878687019670968830BB
:103B6000910599F708950E949B1D0895CF92DF92C9
:103B7000FF920F931F93CF93DF93CDB7DEB72A97B2
:103B80000FB6F894DEBF0FBECDBF603209F08AC118
:103B9000DC011196EC9111974E2F50E04E305105FB
:103BA00008F080C18C01FA01E958FF4F0C94703580
:103BB00088E0E9E2F1E0DE01119601900D928A952C
:103BC000E1F780E2F80111928A95E9F786E0D801E1
:103BD0008C9311961C92119712961C921297139621
:103BE0001C92139788E0FE013196149601900D9275
:103BF0008A95E1F757C18CE4FD01808381E08183E0
:103C0000128213824FC1DC0113968C91139790E0BE
:103C1000982F882712962C91820F911D092E000C47
:103C2000AA0BBB0B35E0880F991FAA1FBB1F3A9543
:103C3000D1F7AC01BD01405E5F4F6F4F7F4F48171A
:103C400059076A077B0708F42DC18C34E1E09E0711
:103C5000A105B10508F026C14D34F1E05F0761050B
:103C6000710520F04CE451E060E070E0481B590B16
:103C7000BC016C567B4FC8010E94783613C1DC0131
:103C80001296FC9012971396DC9040E06D2D8F2DCC
:103C90000E948C23F8019083818341E06D2D8F2D4C
:103CA0000E948C23D80112969C93129713968C93A2
:103CB000F9C0FC01858196819827892798270E9461
:103CC0008B1D41E0D80114962C91211101C040E0D8
:103CD0009C01F801638182810E94C523E3C040E218
:103CE00050E06FEF70E00E94A43680917C03D80111
:103CF0008C9380917A0311968C93119712961C9253
:103D0000129713961C92139714961C92149782E0A4
:103D100015968C93C7C081E090E090937B038093CD
:103D20007A0382E390E090937903809378030E9472
:103D3000852D9093770380937603B4C080917A03A6
:103D400090917B03892BC9F160E080E00E94EE1323
:103D5000D82E62E080E00E94EE13F82E8091760368
:103D6000909177030E949D2D8536910500F1DD200D
:103D7000F1F0FF20E1F00E94852D9093770380936E
:103D8000760380917803909179030197909379035A
:103D900080937803892B89F410927B0310927A0325
:103DA00081E090E090937D0380937C0306C082E3E2
:103DB00090E0909379038093780380917C03F801DD
:103DC000808380917A0381838091780382836AC0A3
:103DD00010927D0310927C0365C040E250E06FEFCB
:103DE00070E00E94A4365EC0DC0112968C91813096
:103DF00009F441C090F1823009F054C0D801139603
:103E0000FC908AE0F8013496DE01119601900D9243
:103E10008A95E1F789819A810E948B1D9A83898313
:103E20008B819C810E948B1D9C838B838D819E81C5
:103E30000E948B1D9E838D838F8198850E948B1D90
:103E400098878F83BE016F5F7F4F8F2D0E940C2458
:103E5000F80180830E949B1D25C080E2F801119229
:103E60008A95E9F788E0D8018C9311961C921197F6
:103E700012961C9217C0F80183819AE0F92E9E01D8
:103E80002F5F3F4F6901D901EF2D1D92EA95E9F7A8
:103E9000B9010E94F723D8018D93F60101900D928C
:103EA000FA94E1F72A960FB6F894DEBF0FBECDBFA5
:103EB000DF91CF911F910F91FF90DF90CF900895E8
:103EC000A6E0B0E0E6E6FFE10C94BE359093C303B4
:103ED0008093C203811520E2920718F40E949A048D
:103EE00010C080EF89838A830E94852D8160682FAE
:103EF0009C838B8349815A817C8181E091E00E947F
:103F000021062696E2E00C94DA35A6E0B0E0EBE874
:103F1000FFE10C94BE359093C3038093C2038115D7
:103F200020E2920718F40E94B10410C080EF898348
:103F30008A830E94852D8160682F9C838B834981B1
:103F40005A817C8181E090E00E9421062696E2E081
:103F50000C94DA350F931F93CF93DF938C01EB0111
:103F600064E673E08C2F0E94F723892BE1F5DD27AF
:103F7000C259DC4F8881F80112821882833079F0AF
:103F800048F4813041F1823071F58091660390915F
:103F9000670309C0843051F08530E9F024C0809176
:103FA0006803909169030097B1F01BC080916A0388
:103FB00090916B030097A9F42091640330916503FD
:103FC00080916603909167032115310541F00097B8
:103FD00041F4C90106C08091640390916503009784
:103FE00011F00E94851FDF91CF911F910F910895CD
:103FF000CF93DF93EC010E94601FCE010E94851FCA
:10400000DF91CF9108950F931F93CF93DF938C018E
:10401000EB0164E673E08C2F0E94F723892B09F0F3
:1040200067C0DD27F8018281813039F4958192FDE6
:1040300013C090FF11C082E00FC0823041F4F8013C
:10404000858182FD06C080FD06C083E005C086E054
:1040500003C085E001C084E0C259DC4F888383300F
:10406000B1F028F4813071F0823031F041C08430F9
:10407000A9F0853079F13CC0809166039091670387
:104080000097A1F5809164039091650320C0809111
:104090006803909169030097E9F028C080916A0352
:1040A00090916B03009711F58091640390916503E3
:1040B000009749F00E94F81F809166039091670372
:1040C000009781F013C08091660390916703009779
:1040D00079F00CC08091640390916503009741F0E2
:1040E0000E94F81F80916403909165030E94601FF5
:1040F000DF91CF911F910F9108950F931F93CF934D
:10410000DF938C01862F64E673E00E94F723892BEE
:10411000B1F4C0916403D0916503209781F0F80158
:104120008281833039F4CE010E94F81FCE010E94B3
:10413000F81F02C0843018F0CE010E94F81FDF91F2
:10414000CF911F910F910895AAE0B0E0EAEAF0E262
:104150000C94BE359C0137552F3F310509F050F4C2
:10416000BE016F5F7F4F0E94F723892B19F4898569
:104170009A8502C088EC90E02A96E2E00C94DA3549
:10418000CF93DF93FB012581211145C0EC01D75569
:10419000CF3FD10511F008F03EC064E673E08C2FEC
:1041A0000E94F723892BB9F5CE0124E0880F991FCF
:1041B0002A95E1F7FC01EC51FD4F22812130C9F431
:1041C0002091640330916503232B29F1209166032C
:1041D00030916703232BF9F0209168033091690334
:1041E000232BC9F420916A0330916B03232B49F0F0
:1041F00012C0223081F42091680330916903232B8F
:1042000051F0FC01E751FD4F20812E7F20838C511E
:104210009D4F0E94312881E0DF91CF9108958FE872
:1042200091E00197F1F700C000000895EF92FF922E
:104230000F931F93CF93DF9382E08093800306EE6A
:1042400011E0C4EED1E0AE01D80121E030E08D9163
:10425000E82FE295EF70F0E061A18F70790102C064
:10426000EE0CFF1C8A95E2F7C7019E2D90959623D0
:1042700091A392A1892B82A3FA018191AF01E82F2A
:10428000E295EF70F0E061A18F70790102C0EE0C51
:10429000FF1C8A95E2F7C7019E2D9095962391A366
:1042A00092A1892B82A381E0A83EB80781F60E94E3
:1042B0000F2150918003E3E8F3E040E0451741F11E
:1042C000D8012D918D01A22FA295AF70B0E09096EC
:1042D0008C9190E02F7002C0959587952A95E2F712
:1042E00081709991A92FA295AF70B0E090962C9112
:1042F00030E09F7002C0359527959A95E2F720FD32
:1043000002C090E001C092E0892B81934F5FD6CF2D
:10431000CDB7DEB7E6E00C94D635A8E1B0E0E3E92E
:10432000F1E20C94B13510E000E082E0982E94E0C8
:10433000A92EB12C2DEF822E772473943CEF632E9F
:1043400043E0542E80918003181708F0ACC0E12E92
:10435000F12CF701EA51FE4F8081E82FE295EF70D2
:10436000F0E0E0A1F0E08F7002C0F595E7958A9546
:10437000E2F7E170D701AC51BE4F2C91A22FA2956C
:10438000AF70B0E090968C9190E02F7002C0959540
:1043900087952A95E2F780FD02C080E001C082E0A7
:1043A0008E2BD701AD57BC4FEC912E2F237030E0F0
:1043B000482F082E000C550B2417350709F471C03F
:1043C000EE0FEE0FE82BEC93EF70F0E0EC52FE4FA7
:1043D000C7018F579C4F6C019081F6018081890F36
:1043E0008083843044F1F701E258FC4F80818F5F75
:1043F00080830E94852D1D876E86682F8F87988BFE
:10440000598A7A8A412F5CEF792F83E091E00E94EC
:1044100021060E94852D1B8B6C8A682F8D8B9E8BAD
:104420005F8A188E412F5CEF792F83E090E00E9425
:10443000210621E001C020E0F60180818D3F3CF59E
:10444000F701E258FC4F8081815080830E94852DC6
:1044500019838A82682F8B839C839D827E82412F61
:104460005DEF792F82E091E00E9421060E94852D68
:104470001F838886682F89879A879B861C86412F91
:104480005DEF792F82E090E00E94210621E0F601A5
:104490008081082E000C990BB5010E943A3580836B
:1044A000022B1F5F4FCF802F6896EFE00C94CD3525
:1044B000579A2BB12F773BB130684FB7F894FC0176
:1044C000CB01880F991F680F791F6E0F7F1FE617AA
:1044D000F70789F0819198E03BB9000000C087FFA1
:1044E0002BB9880F000000C000C000C02BB900C06D
:1044F0009A9591F7ECCF4FBF8FE594E00197F1F7D4
:1045000000C000000895482F50E0FA013597EF33BE
:10451000F10508F06FC0EB57FF4F0C9470350E9407
:10452000871064C08091B602817F8E7F8093B6022F
:1045300081E080938503089580917C0390917D03B1
:10454000892B09F453C00E94410550C08091B602E6
:10455000982F9095917090FB80F98093B6029111FD
:1045600045C0897F877F10C08091B60281FB2227DA
:1045700020F991E0922790FB81F98093B60299236C
:10458000A9F18091B60281608093B6022FC080911C
:10459000B60282FB222720F991E0922790FB82F954
:1045A000ECCF8091B60283FB222720F991E092277D
:1045B00090FB83F9E2CF0E947B098091A00387FBE7
:1045C000222720F991E0922790FB87F98093A0039E
:1045D0000DC0895301C08D5191E001C0990F8A959A
:1045E000EAF7892F0E94C9090E947B0981E008959A
:1045F00081E0F8CF80E0089580E008950E94FC22D9
:104600000895CF93C82F80918503882319F08130B6
:1046100031F02BC00E94780E823249F504C00E940E
:10462000780E823261F48C2F0E94FE22811104C028
:104630008C2F0E94832217C081E090E014C08C2F41
:104640000E94FC2281110EC0C43149F018F4CB3015
:1046500049F00FC0C93219F0C83321F00AC01092D6
:10466000850307C081E0817006C01092850380E059
:1046700002C080E0F8CFCF91089588E0089550E01F
:10468000440F551F26E0629F400D511D11249A01D1
:1046900062E1869F200D311D1124C901899608957C
:1046A0000F931F93CF93DF938830A0F4633090F47F
:1046B000433080F40E943F238C010E94BB3690E07F
:1046C000D82FCC27C80101960E94BB369E01282B0B
:1046D000C90102C080E090E0DF91CF911F910F915E
:1046E00008950F931F93CF93DF93883080F4633046
:1046F00070F4433060F4E9010E943F238C016D2F78
:104700000E94DF366C2FC80101960E94DF36DF91D0
:10471000CF911F910F910895FF920F931F93CF9305
:10472000DF93883058F5623048F524E0629F8001BD
:10473000112438E0839F000D111D112407541F4FD1
:10474000411103C082E090E002C080E090E0F42ECE
:10475000800F911F0E94BB3690E0D82FCC27F1101C
:1047600003C083E090E002C081E090E0800F911FE1
:104770000E94BB369E01282BC90102C080E090E058
:10478000CDB7DEB7E5E00C94D7350F931F93CF93E9
:10479000DF93883038F5623028F594E0699FE001B6
:1047A000112498E0899FC00DD11D1124C754DF4FFB
:1047B000411103C082E090E002C080E090E0632FEE
:1047C000022F142F8C0F9D1F0E94DF36111103C082
:1047D00083E090E002C081E090E0602F8C0F9D1F8D
:1047E0000E94DF36DF91CF911F910F91089588309D
:1047F00080F49B01982F8AE0989FB00111246750A4
:104800007F4F4AE050E0C9010E94AB3680E090E063
:1048100008958FEF9FEF0895883080F49B01982FC3
:104820008AE0989FB001112467507F4F4AE050E022
:10483000C9010E94033780E090E008958FEF9FEF59
:104840000895CF92DF92FF920F931F93CF93DF9340
:10485000CDB7DEB72A970FB6F894DEBF0FBECDBF37
:10486000C0907C03D0907D0381E090E090937D0325
:1048700080937C0310E000E0F12C4F2D602F812FFE
:104880000E942C049C014F2D602F812F0E947123C8
:10489000F39483E0F812F1CF0F5F033069F700E083
:1048A00041E0602F812F0E9449049C0141E0602F6C
:1048B000812F0E94C52340E0602F812F0E94490470
:1048C0009C0140E0602F812F0E94C5230F5F0230C2
:1048D00039F71F5F183079F61A8219821C821B8201
:1048E0001E821D8218861F8288EC90E09A87898735
:1048F00010E0BE016F5F7F4F812F0E940C241F5F6D
:104900001830B9F7D0927D03C0927C032A960FB677
:10491000F894DEBF0FBECDBFDF91CF911F910F91F5
:10492000FF90DF90CF900895EF92FF920F931F9327
:10493000CF93DF93EA017A01E60EF71E8C01C801DE
:104940008996CE15DF0561F00039110520F40E942B
:10495000BB36888301C0188221960F5F1F4FEFCFAF
:10496000CDB7DEB7E6E00C94D635A0E0B0E0EBEBD7
:10497000F4E20C94B235EC016B017A0180399105B7
:1049800008F072C080E990E08C1B9D0B861797079A
:1049900008F46AC03E0129E2620E711C80917C031A
:1049A00090917D03892B19F0CE0CDF1C58C0C0FFFD
:1049B00011C0CE0188960E94BB3690E0982F8827C0
:1049C000F7012081822B81159C4739F48FEFF70185
:1049D000808303C000E010E002C001E010E0CE01DF
:1049E0008C0D9D1D560180FF17C0F1E0AF1AB10874
:1049F00047018A0C9B1CC3018C0D9D1D0E94BB3678
:104A0000F401208130E0322F2227282B21153C474A
:104A100019F48FEFF4018083F701E00FF11F2FEFFE
:104A2000CF018E199F098A159B0508F0BDCF8081A3
:104A300090E0982F88273181832B81159C4711F4B2
:104A4000208321833296ECCFC039D10520F4F701C1
:104A500060810E94DF36FFEFEF1AFF0A2196CE0138
:104A60008996EC14FD0481F7CDB7DEB7EEE00C9427
:104A7000CE35883038F4633028F4433018F40E947F
:104A80005023089580E090E00895883028F4623043
:104A900018F40E948C23089580E090E0089580E24D
:104AA000089587EB92E00895EF92FF920F931F9382
:104AB000CF93DF93EA017A01E60EF71E8C01C8015D
:104AC000875B9E4FCE15DF0569F0073B22E012079A
:104AD00020F40E94BB36888301C0188221960F5FA4
:104AE0001F4FEDCFCDB7DEB7E6E00C94D635EF9291
:104AF000FF920F931F93CF93DF93EA017A01E60EA3
:104B0000F71E8C01C801875B9E4FCE15DF0559F05B
:104B1000073B22E0120718F468810E94DF362196D5
:104B20000F5F1F4FEFCFCDB7DEB7E6E00C94D63561
:104B3000CF93DF93C9E4D1E060E0CE010E94DF367D
:104B40002196C11584E0D807B9F7DF91CF91089578
:104B5000A4E0B0E0EEEAF5E20C94B435F82E2FE1D3
:104B6000281708F4B4C08FEF93E00E94BB36811180
:104B7000AEC009E411E0FF2071F0011584E01807D0
:104B800009F4A5C0C8010E94BB36811101C0FA9486
:104B90000F5F1F4FF0CF19821A821B821C82CC2418
:104BA000CA947801EFEFEE1AFE0AC8010E94BB36E4
:104BB00089831A82882309F48AC0813009F081C070
:104BC0005801F2E0AF0EB11CC7010E94BB36D82ECF
:104BD0008A83882309F47BC08FEF8D0D833088F49E
:104BE000780123E0E20EF11CC5010E94BB368B83E5
:104BF000811102C08701D5CFCE0101960E945927AD
:104C0000F9CF8BEF8D0D833078F5480183E0880E66
:104C1000911CC5010E94BB368B83811102C07401B7
:104C2000E9CF7801E4E0EE0EF11CC4010E94BB362E
:104C30008C838823F9F22B813C812130FFEF3F07E1
:104C400018F0922F80E001C0C90126E0D21631F0A1
:104C5000E7E0DE1631F00E94F81FCCCF0E94601F03
:104C6000C9CF0E94851FC6CFF4E0DF1611F0750191
:104C7000C1CFC5010E94BB36D82E780124E0E20ED8
:104C8000F11CC80103960E94BB36DD2001F1882388
:104C9000F1F0282F30E021503109C29EA001C39EBF
:104CA000500D11248D2D90E00197840F951F0197D1
:104CB00008F4A0CFEFE9FFE03197F1F700C0000062
:104CC000F6CF60E0CE0101960E94F22693CF2496A3
:104CD000ECE00C94D035CF93DF9386319C4709F5F7
:104CE000EB010E94780E9D81992371F08A7A91E000
:104CF00009F490E090938603811102C089E201C01B
:104D000085E30E94902C09C080918603811102C026
:104D100089E201C085E30E94A72C0E94480F80E031
:104D200001C081E0DF91CF910895A0E0B0E0EBE910
:104D3000F6E20C94B935E82FF0E0E052FA4FD49047
:104D4000282F26952695269530E0F901E058F94F51
:104D50000491877010E0082E02C0159507950A94FB
:104D6000E2F701701127F901E059F94FE490F12CB5
:104D7000082E02C0F594E7940A94E2F791E0E92244
:104D8000FF24F901E05AF94FC491D0E002C0D59553
:104D9000C7958A95E2F7C170DD270115110519F055
:104DA00081EE0E946F06E114F10419F086EE0E9474
:104DB0006F068D2D0E94F706E114F10419F086EEBE
:104DC0000E94B5060115110519F081EE0E94B50685
:104DD000CD2B19F08CE20E94F706CDB7DEB7E7E0E5
:104DE0000C94D535EF92FF920F931F93CF93DF93DF
:104DF000EC01162F0AE08881882309F455C0813020
:104E000009F043C08981813041F47E0182E0E80EDF
:104E1000F11C8A810E94F70609C0823049F47E01A4
:104E2000E2E0EE0EF11C8A810E946F06E7012FC0BE
:104E3000833041F47E01F2E0EF0EF11C8A810E9482
:104E4000B506F4CF843011F0219621C02A81229634
:104E500080E090E030E0205331092A30310558F4E9
:104E6000089FA001099F500D1124C901840F951FAF
:104E700021962881EFCF009751F0EFE9FFE03197BD
:104E8000F1F700C000000197F6CF0E949526219609
:104E9000812F882309F4AFCFEFE9FFE03197F1F7D5
:104EA00000C000008150F5CFCDB7DEB7E6E00C942E
:104EB000D63560E00E94F2260895A0E0B0E0E3E677
:104EC000F7E20C94B6357C015B01C42FD22FFC01B4
:104ED00085818823B1F0409389030E94852D9093AA
:104EE00088038093870380E28C0F883008F052C0DB
:104EF000C77081E001C0880FCA95EAF70E940107D8
:104F000049C080918903481335C0809187039091EF
:104F100088030E949D2D6C01B701C5010E94A42049
:104F2000C816D90638F510E21D0FCD17B9F080E28A
:104F30008C0F883040F4C77081E001C0880FCA959B
:104F4000EAF70E940807183010F581E09D2F97704E
:104F500001C0880F9A95EAF70E940107802F0E94EE
:104F6000F7061830B8F4D77081E001C0880FDA95E1
:104F7000EAF70AC080E28C0F883060F4C77081E0E5
:104F800001C0880FCA95EAF70E94080703C0802F66
:104F90000E94F706CDB7DEB7EAE00C94D2350F9346
:104FA000FC01E851FC47E730F10590F5CB01EC53EB
:104FB000FF4F0C94703506E221EE41EE6AE17CE78A
:104FC00023C007E225EE45EE6BE17CE71DC006E25B
:104FD00021EE40EE68E17CE717C007E225EE44EEE3
:104FE00069E17CE711C006E221EE42EE6CE17CE76C
:104FF0000BC007E225EE46EE6DE17CE705C008E256
:1050000021E045EE6EE17CE70E945D2780E008C06C
:10501000FB018581882319F01092890301C081E08A
:105020000F9108954115510511F0FA010995089560
:10503000CF93DF93EC014A855B856E857F850E9467
:1050400012288B810E94940E8C810E94810E0E94F6
:10505000480F86E0FE0111928A95E9F7DF91CF9122
:105060000895CF93DF93EC018D8181FD11C08260A3
:105070008D838B810E948E0E8C810E947B0E0E94FC
:10508000480F488559856E857F85CE010E9412287C
:1050900010928D0310928C038D8180FD03C0CE0190
:1050A0000E941828DF91CF910895CF93FB01C5810D
:1050B000CC2319F120918C0330918D0321153105FA
:1050C000D9F028173907C1F0AC01C901992724E0AC
:1050D000880F991F2A95E1F7FC01E751FD4F2081C8
:1050E000246020838C519D4FFC01518340830E949A
:1050F00031280E949B0E01C0C0E08C2FCF910895F3
:10510000EF92FF920F931F93CF93DF939C0137553C
:105110002F3F310511F008F059C0FB017C018C01D3
:10512000112784E0000F111F8A95E1F7E801CC51A7
:10513000DD4F958107511D4FD8018C9190FB80F96F
:105140008C938581882349F10E94852D90938B0350
:1051500080938A038A818F5F8A830E94780E8B8373
:105160000E948B0E9B81892B8B830E949E0E8C83C9
:105170004E815F816E857F85CE010E941228F801E5
:10518000808181FD03C09E2D8F2D02C090E080E0C4
:1051900090938C0380938D0319C04C855D856E853B
:1051A0007F85CE010E941228D8018C9181FF0EC00C
:1051B000CE010E94182880918C0390918D03E816EF
:1051C000F90621F410928D0310928C0381E0CDB783
:1051D000DEB7E6E00C94D635A7E0B0E0E2EFF8E207
:1051E0000C94BC3580918C0390918D03892B61F1D7
:1051F00080918A0390918B030E949D2D8C01BE01AA
:105200006F5F7F4F87E0FB0111928A95E9F78091EC
:105210008C0390918D030E94A42080179107A0F425
:1052200080918C0390918D03992724E0880F991F1A
:105230002A95E1F7FC01E751FD4F208122FD04C0D2
:105240008C519D4F0E9431282796E4E00C94D8356C
:105250001F93CF93DF9387372CE7920721F088378E
:105260009C4759F031C0FB01C581CC2319F00E9445
:105270006A2909C00E946A2918C0FB01C581CC2394
:1052800091F00E946D290E94F3090E947029D82F85
:105290000E946D29C82F0E946A294D2F6C2F0E94F1
:1052A000310BC0E012C00E946D290E94FF090E94CC
:1052B0007029182F0E946D29D82F0E946A29412F2A
:1052C0006D2F0E94310B01C0C1E08C2FDF91CF9177
:1052D0001F91089580911D01089580911C010895EA
:1052E00080911B01089585E290E00E94BB368733D0
:1052F00081F486E290E00E94BB36843151F487E26B
:1053000090E00E94BB3691E0823F09F090E0892F47
:1053100001C080E081700895CF93C82F811102C031
:105320006FEF01C067E385E290E00E94DF36C111B4
:1053300002C06FEF01C064E186E290E00E94DF36B8
:10534000C11102C06FEF01C062EF87E290E00E94DE
:10535000DF36CF910895089588E290E00E94BB3631
:10536000682F70E080E090E008950895CF93C62FF5
:105370000E94B5296C2F88E290E00E94DF36CF9121
:10538000089580E00E948C2960E070E0CB010E94CB
:10539000B6290E9421240E94982581E00E948C2930
:1053A00008950E94AB290E94AC290E94B5290E9451
:1053B0007329811102C00E94C12908959C01FB013B
:1053C0008581882351F0A90157574038510530F4A1
:1053D000C9010E94A82580E0089581E008952FEF7B
:1053E000FC0120830895CF93DF93EC0188818138FD
:1053F00089F028F48038A1F40E94F41610C0823895
:1054000061F0833869F40E94EE1689830E94F116D8
:105410008A8306C00E94881602C00E94D116898322
:10542000DF91CF910895CF93DF93EC01888181388C
:10543000B1F058F4803829F5D9810E94F116C82FAF
:105440000E94EE164D2F6C2F1AC08238A1F08338BF
:10545000C1F40E94F416482F6A81898110C08981A5
:105460000E94071C8981811103C00E94691B09C029
:105470000E944F1C06C089810E94EA1602C00E9449
:105480009118DF91CF910895EF92FF920F931F93A0
:10549000CF93DF93EC01162F20917A0330917B0399
:1054A0009881232B51F09E3F09F015C189818330EB
:1054B00020F08550833008F00EC19E012F5F3F4FD2
:1054C0009B3009F4EEC050F5953009F47CC0C0F46F
:1054D000923009F443C030F4913009F0F8C01982D9
:1054E00089E08DC0933009F461C0943009F0EFC0B9
:1054F0004B816A8189810E9450239C838D83EBC0FC
:10550000973009F46EC008F469C0983009F46DC092
:10551000993009F0DCC00E946816DDC0903109F4B2
:1055200099C060F49D3009F467C008F462C09E30F1
:1055300009F467C09F3009F475C0C9C0923109F4FD
:1055400090C008F48AC0933109F49BC09E3F09F0D3
:10555000BEC0612FCE010E94B61DBDC089818230C0
:1055600041F0833069F0813009F0B1C00E94912D83
:1055700002C00E94AC299A838B837C836D83ABC06D
:1055800080917C0390917D03892B09F4A4C07E0156
:1055900022E0E20EF11C00E0802F0E940314F701CC
:1055A00081937F010F5F0330B9F795C08981823005
:1055B00009F08DC06A817B818C819D810E94763546
:1055C0000E94B62988C02C813D81322723273227AB
:1055D0004B816A8189810E9471237DC00E942124B0
:1055E0007AC0C9010E94132A76C0C9010E94F3291A
:1055F00072C00E944F2533C00E94512599838A832F
:105600006AC089819A819827892798276B8170E0E1
:105610006D31710508F05FC0AE014C5F5F4F0E94B5
:10562000542559C080917C0390917D03892B09F406
:1056300052C089819A819827892798276B8170E0C9
:105640006D31710508F047C0AE014C5F5F4F0E949D
:10565000772541C00E9498253EC00E943D23898342
:105660003AC089819A819827892798276B8170E0B1
:105670006D31710580F5AE014C5F5F4F0E9494243F
:105680002AC089819A819827892798276B8170E0A1
:105690006D31710500F5AE014C5F5F4F0E94B5247E
:1056A0001AC080917C0390917D03892BA1F0612F1A
:1056B000CE010E94382EFFEF21EE84E0F150204011
:1056C0008040E1F700C000000E94D22D04C0612F8D
:1056D000CE010E94EF29612FCE010E94382ECDB756
:1056E000DEB7E6E00C94D635909393038093920353
:1056F0000895E0919203F0919303309729F001907F
:10570000F081E02D0995089580E00895E0919203DD
:10571000F0919303309721F00280F381E02D0995F9
:105720000895E0919203F0919303309739F026E0C9
:10573000DC012C930480F581E02D09950895A3E008
:10574000B0E0E5EAFBE20C94BE3520919003309185
:10575000910328173907A1F0909391038093900348
:10576000E0919203F0919303309751F023E0298365
:105770009B838A830084F185E02DCE0101960995F3
:105780002396E2E00C94DA35A3E0B0E0EAECFBE229
:105790000C94BE3520918E0330918F032817390762
:1057A000A1F090938F0380938E03E0919203F09188
:1057B0009303309751F024E029839B838A830084EC
:1057C000F185E02DCE01019609952396E2E00C9437
:1057D000DA35E0910601F0910701329680912801B7
:1057E000882359F08091A00387FF07C0E09104014E
:1057F000F091050132969EE101C096E080E0915063
:1058000028F021912223D9F38F5FF9CF08958823BF
:1058100099F190912801992309F19091A00397FFA4
:105820001DC0982F9695969596959E3128F5E091F6
:105830000401F0910501E90FF11D2281422F50E092
:10584000877021E030E002C0220F331F8A95E2F713
:105850002423352381E0232B91F40EC020910601EF
:1058600030910701F9013296285F3F4F91918917D6
:1058700029F0E217F307D1F780E0089581E0089559
:105880009C01FC0132969FEF80E04191461789F020
:105890009F3F19F4411101C0982F8F5F8630A9F7FF
:1058A0009F3F39F0F901E90FF11D97FDFA956283E9
:1058B000089508959C012A5F3F4FFC0142814613E1
:1058C00001C01282019682179307B9F70895262F17
:1058D0002695269526952E3168F4FC01E20FF11DE0
:1058E000677021E030E001C0220F6A95EAF78281FB
:1058F000282B22830895262F2695269526952E312E
:1059000070F4FC01E20FF11D677021E030E001C08E
:10591000220F6A95EAF72095828128232283089531
:10592000682F80912801882359F08091A00387FF78
:1059300007C080910401909105010E94672C089591
:1059400080910601909107010E94402C0895682FD4
:1059500080912801882359F08091A00387FF07C018
:1059600080910401909105010E947B2C0895809103
:105970000601909107010E945A2C089580912801F8
:10598000882359F08091A00387FF07C0E0910401AC
:10599000F091050132968EE106C0E0910601F0918A
:1059A0000701329686E0DF011D928A95E9F7089596
:1059B00008950E94D82C089583E0809394030E9458
:1059C000D92C0895811102C081E001C082E080934A
:1059D00094030E94D92C08950E94E22C089581E03E
:1059E000809394030E94D92C08950E94EF2C08956F
:1059F00008950E94F82C08950E94F92C08950E94A1
:105A0000F82C08950E94F82C08950E94F82C08950F
:105A1000CF930E94022D0E94BE140E94FF2CC0E072
:105A20008C2F0E940314811104C0CF5FC330C1F7D3
:105A300001C081E0CF91089585B7806885BF85B7A3
:105A4000806885BF08951F920F920FB60F921124A0
:105A50008F939F93AF93BF9380919503811113C050
:105A60008091C4039091C503A091C603B091C70370
:105A70004196A11DB11D8093C4039093C503A093CB
:105A8000C603B093C703BF91AF919F918F910F90C1
:105A90000FBE0F901F9018958091CC03843031F188
:105AA0000E94D8051092950320E488E190E00FB69B
:105AB000F894A895809360000FBE2093600083B790
:105AC000817F846083BF83B7816083BF789488952A
:105AD00083B78E7F83BF0FB6F894A895809160003E
