:100000000C9480030C949D030C949D030C949D030D
:100010000C949D030C949D030C949D030C949D03E0
:100020000C949D030C949D030C94602D0C94322E23
:100030000C94FE270C949D030C949D030C949D033B
:100040000C949D030C949D030C949D030C949D03B0
:100050000C949D030C9487280C949D030C949D0391
:100060000C949D030C949D030C949D030C949D0390
:100070000C949D030C949D030C949D030C949D0380
:100080000C949D030C949D030C949D030C949D0370
:100090000C949D030C949D030C949D030C949D0360
:1000A0000C949D030C949D030C949D03C306C306FE
:1000B000EF06EF0665077008700870088307EB0706
:1000C000FC07FC0727182A182F1836183B18401869
:1000D00045184A184F18541859185E1861186118B5
:1000E0006118611861186118611861186118B318F6
:1000F000D618DE181A1934194A1966197919C3194C
:10010000C8192D1A2D1A2D1ACF19771D6D1D811D95
:10011000D11DD51DD51DD11DD51DD51DA21DD51D8A
:10012000AC1DB61DD51DD51DD51DD51DD11DD51D8B
:10013000D51DD11DD51D8F1DD51DD51DC61DC61D97
:10014000C61DC61DC61DC61DC61DC61DC61DD31D8A
:10015000D51D771D6A1DD51DD51DD51DD51DD51DD8
:10016000D51DD51DD51DD51DD51DD31DD51DD51D01
:10017000D11DD51DC41DC41DC41DC41DC41DC41D59
:10018000C41DC41DC41DD31DC222C822B622BC2258
:10019000CE22D422DA229A2EC12EB92FC12EB92F07
:1001A0000D2F302FB92F872F962FDA00D900A900F5
:1001B000AA00237824782578267827782878297843
:1001C0002A782178227850004F0021782278500038
:1001D0004F002178227850004F002178227850007B
:1001E0004F002178227850004F002400250026007F
:1001F0002100220023001E001F002000010001003A
:1002000001000100010001000100010001000100E6
:1002100001000100010001000100010001000100D6
:1002200001000100010001000100010001000100C6
:1002300001000100010001000100010001000100B6
:1002400001000100010001000100010001000100A6
:100250000100010001000100010001000100010096
:100260000100010001000100010001000100010086
:100270000100010001000100010000010101010174
:10028000010101010202020202020202020303034F
:10029000030303030304040404040404050505051F
:1002A00005060606060607070707070808080809DF
:1002B0000909090A0A0A0B0B0B0C0C0C0D0D0D0E8B
:1002C0000E0E0F0F0F101011111112121313141420
:1002D000151516161717181819191A1A1B1B1C1D95
:1002E0001D1E1E1F202021222223242425262627EE
:1002F0002829292A2B2C2D2D2E2F30313232333420
:1003000035363738393A3B3C3D3E3F404142434425
:1003100045464748494A4C4D4E4F50515354555607
:1003200058595A5B5D5E5F616264656668696B6CB3
:100330006D6F7072737577787A7B7D7E808283852E
:1003400087888A8C8E8F91939596989A9C9EA0A26E
:10035000A3A5A7A9ABADAFB1B3B5B7BABCBEC0C278
:10036000C4C6C9CBCDCFD1D4D6D8DBDDDFE2E4E73C
:10037000E9EBEEF0F3F5F8FAFDFFFD377A585A0095
:100380000004E6D6B4460200210116000000742FD6
:10039000E5A3E00261010B5D003D8889C65436C3C8
:1003A000174FE4E7E3B0AFE12EA3A4F0B76A4A60C9
:1003B0005FEBF7B64F83C436B96805EFC5342DC07F
:1003C000250422E4E7C3D78F4D3621E9412D2409C6
:1003D000021784C84EA94A37D576435118CD3866DE
:1003E00060B31A09894E5C244B9FB1409F26517B14
:1003F000B86038D7820236777CBE88DBA1B09FFA1E
:10040000B96F3A5A9EBC1AAB30DCDB2DB4E211084E
:100410003B46B724DBC870FE18D0A84C015FD88BD0
:10042000A5C5A52A7B726A4564D2BA16589C05DB1D
:10043000A2738FA3E953C92837B4846D94B930E20D
:10044000F27C4537429453E9BC341EB2CC8D89BD51
:100450000EBA8230FA374BB6B628ECBCCEDFC26C8F
:10046000E1F0A7E6380263C645246A90C78065308C
:100470005547E385E4774DDDD6A42CFA8633424810
:100480004A4DD5CF726D09FEA12DF8F67998422D0F
:10049000FA2C84DE3F18BBB656DA9EFC9F6CA3880C
:1004A000DFDAE379000063C853863E077D980001D8
:1004B000A702E20400008487F3C6B1C467FB020010
:1004C00000000004595A00000000000000002A2B20
:1004D00028000000000000000000000000000000F4
:1004E0000029000000002C1E34202122243426275D
:1004F000252E362D3738271E1F202122232425267E
:100500003333362E37381F0405060708090A0B0C4B
:100510000D0E0F101112131415161718191A1B1C93
:100520001D2F3130232D350405060708090A0B0C51
:100530000D0E0F101112131415161718191A1B1C73
:100540001D2F3130354C000000000000000000007D
:10055000000000000000000000000000000000009B
:10056000000000000000000000007E0F00D4FFFF2C
:10057000FFC7000000781C037600690061006C0072
:100580003A00660036003400630032006200330037
:10059000630000000E0356004F004900440039007C
:1005A0003100000016034C0061007A00790042001F
:1005B0006F0061007200640073000000040309040E
:1005C00009025B00030100A0FA0904000001030115
:1005D00001000921110100012244000705810308DF
:1005E00000010904010002030000000921110100BB
:1005F00001222200070582032000010705030320D2
:10060000000109040200010300000009211101009A
:1006100001226D0007058403200001120100020081
:1006200000000855F034350001010203010660FFA7
:100630000961A1010962150026FF00952075088156
:10064000020963150026FF00952075089102C00578
:10065000010980A101850319012AB700150126B7F8
:1006600000950175108100C0050C0901A1018504E8
:1006700019012AA002150126A0029501751081001A
:10068000C005010906A1018506050719E029E7153E
:100690000025019508750181020507190029EF154C
:1006A00000250195F07501810205081901290595BC
:1006B0000575019102950175039101C005010906B7
:1006C000A101050719E029E7150025019508750125
:1006D00081029501750881010507190029FF1500A0
:1006E00026FF0095067508810005081901290515E2
:1006F000002501950575019102950175039101C0D1
:1007000011241FBECFEFDAE0DEBFCDBF11E0A0E0C5
:10071000B1E0E4E4F2E602C005900D92AC3BB10713
:10072000D9F723E0ACEBB1E001C01D92A237B207CC
:10073000E1F70E94B9140C9420310C940000883029
:10074000C0F46330B0F44330A0F470E0FB01EE0F6E
:10075000FF1FE60FF71F99E0899FE00DF11D11249F
:10076000E40FF11DEE0FFF1FE651FE4F85919491AE
:10077000089581E090E008958830A8F4623098F4FC
:1007800070E0680F711D680F711DFB01EE0FFF1FF8
:1007900081E04827E40FF11DEE0FFF1FE655FE4FE5
:1007A00085919491089581E090E008959C013A9597
:1007B00021153F4130F5BC0166277270AC0144271A
:1007C00054709C012227387094FF0FC090FF02C024
:1007D00080E101C080E0672B09F08062452B09F0C1
:1007E0008064232B79F080680895892F8170672BAE
:1007F00009F08260452B09F08460232B19F0886092
:10080000089580E00895CF93DF93EB010E94D60313
:10081000FE010995DF91CF910895CF93DF93EC010D
:10082000805E9109089710F0209719F464E776E04C
:1008300002C06EEC78E0CE010E9403048C2F0E946F
:10084000E205DF91CF910895CF93DF93EC010E94F1
:100850002806CE01805E9109089710F0209719F4C0
:100860006BE776E002C065ED78E0CE010E940304FC
:10087000DF91CF91089581E0089581E008950E946D
:100880003D0408950E943F0408950E943D04089588
:1008900008950E9448040895A6E0B0E0E2E5F4E07F
:1008A0000C942B3049835A839E833091C3018981F4
:1008B0009A81311115C03E81332359F0222349F02A
:1008C0000E942B0A182F682F89819A810E94F309B0
:1008D00003C00E940E0A182F69817A81812F04C0FB
:1008E0000E942B0A69817A810E9411122696E3E008
:1008F0000C944730FC01262F408151816281738125
:10090000848195810E944C040895CF93DF93EC017C
:1009100061E00E947A04BE010E944204DF91CF91FF
:100920000895CF93DF93EC0160E00E947A04BE014A
:100930000E944904DF91CF91089581E008950E94BB
:100940009D040895CF93C82F0E94EE088C2F0E941B
:100950009F042FEF84E39CE0215080409040E1F71A
:1009600000C00000CF91089581E00E94A2040E947F
:10097000AD28089580E00E94A2040E94BE28089538
:100980000F931F93CF93DF93EC018B010E943023D1
:10099000882329F061E0C8010E947A04EC01F80183
:1009A000858181110E940718B801CE010E94B924E7
:1009B000882309F45EC0B801CE010E949B1B8823E6
:1009C00009F457C0B801CE010E944504882309F4F8
:1009D00050C0B801CE010E945B23882309F449C0AE
:1009E000B801CE010E94AA22882309F442C0B801AE
:1009F000CE010E9446218823E1F1B801CE010E9478
:100A000010188823B1F1B801CE010E940324882375
:100A100081F1F8018581882341F1C330FCE7DF07CC
:100A2000D1F040F4C115ECE7DE0791F0C130DC47AE
:100A3000A1F01BC0CB358CE7D807A9F0CC35ECE78B
:100A4000DE0771F0CA35DC4781F40E94480F0DC003
:100A50000E94B4040EC00E94500F0E94BA0409C044
:100A60000E943E0F02C00E944C0FC8010E943B042E
:100A700001C080E0DF91CF911F910F910895CF9336
:100A8000DF93EC0161E00E947A04BE010E94C00481
:100A9000DF91CF9108950E94D7270E947205089593
:100AA0000E9476050E94E0270895089581E0089548
:100AB0000895CF93DF93D82F0E945605C82F88231F
:100AC00019F08D2F0E9458058C2FDF91CF9108953A
:100AD0000895CF93C82F0E9455058C2F0E94590569
:100AE000CF91089580E00E94690508950E945426E0
:100AF0000E9469050895CF930E945426C82F8091C3
:100B0000BE01C81779F0C093BE010E946C286093A3
:100B1000BF017093C0018093C1019093C2018C2FDB
:100B20000E946905CF910895ADE0B0E0EAE9F5E0F3
:100B30000C942A30488759876A877B878C879D87E2
:100B400091110E940E0E8E010F5F1F4F87E0F8017A
:100B500011928A95E9F786E0FE013896D801019056
:100B60000D928A95E1F780913E0382FF0CC00E94AE
:100B7000CE0D882319F082E00E94120F0E94B50D5D
:100B800081110E944B0E8D8181110AC029813A8109
:100B90004B815C816D817E818F810E94300D05C00B
:100BA000C8010E9485048111F1CF2D96E4E00C94D8
:100BB0004630FC012481213021F4808191810E9402
:100BC000580A0895CF93882309F440C0C82F8CEFAA
:100BD0008C0F813A98F48C2F0E94DC1D811136C055
:100BE0008C2F0E94E226882329F08C2F0E948227D6
:100BF0000E94BB0E8C2F0E946B270CC080E28C0FD2
:100C0000883058F4C77081E001C0880FCA95EAF7B0
:100C10000E94EE0D0E94BB0E19C0EBE5EC0FE33015
:100C200040F4F0E0EB5AFE4F808190E00E947A267B
:100C30000DC0C85ACB3150F4EC2FF0E0EE0FFF1F7F
:100C4000E15EFE4F808191810E949F26CF910895A1
:100C5000882339F19CEF980F913A18F40E9482276B
:100C60000DC090E2980F983060F4877091E001C059
:100C7000990F8A95EAF7892F0E94F40D0E94BB0E06
:100C800008959BE5980F933028F480E090E00E944F
:100C90007A260895885A8B3120F480E090E00E94F3
:100CA0009F2608951F93CF93DF93182FEB010E9487
:100CB000E205209741F08FE99FE00197F1F700C02E
:100CC00000002197F6CF812F0E942806DF91CF9157
:100CD0001F910895893319F060E070E002C060E56B
:100CE00070E00E9452060895882321F00E94EE0DC4
:100CF0000E94BB0E0895882321F00E94F40D0E94EB
:100D0000BB0E0895A0E0B0E0E8E8F6E00C942630D1
:100D10006C01D62FC72FFC010581168112951F701B
:100D20000E94E40D8823F9F00023E9F08C2F807FE6
:100D3000803461F080E28D0F8830A8F08C2F807EA7
:100D4000803221F4D23078F0112369F080913E0393
:100D500082FF09C082E00E94120F0E94E40D91E020
:100D6000F82EF92601C0F12CEC2EE2948FE0E82257
:100D70008E2D90E08C30910508F0B2C1FC01EA5A4A
:100D8000FF4F0C940F308C2F807FCF70882311F091
:100D9000C295C07F002399F0CC2309F48DC180E275
:100DA0008D0F883010F0D11104C08C2F0E94EE0DF1
:100DB00003C08C2F0E94010E0E94BB0E7DC18D2F9F
:100DC0000E942806CC2309F48BC180E28D0F883065
:100DD00040F1DD2331F18C2F0E94070E25C08C2FAE
:100DE000807FCF70803211F0C295C07FDD2321F06B
:100DF000D13009F447C050C080913E0382FD17C036
:100E0000002349F0CC2329F08C2F0E94EE0D0E9484
:100E1000BB0E80E052C180E00E942806CC2309F47A
:100E20005FC18C2F0E94F40D0E94BB0E59C100239C
:100E3000A9F01123A9F1113021F48C2F0E941B0E6F
:100E40004FC1153009F04CC18C2F0E9474068C2FB5
:100E50000E94320E8C2F0E94CF0E42C1112341F00E
:100E6000113009F03DC10E94EB0D8C2309F438C10B
:100E70008C2F0E947B068C2F0E94320E8C2F0E949A
:100E8000DB0E2EC1002321F0163008F029C108C066
:100E9000153008F025C115C0002331F011110CC127
:100EA0008C2F0E9474061CC1112359F0D93309F00C
:100EB00014C1FFEF27EE83E0F15020408040E1F7BE
:100EC0000AC18C2F0E947B060BC18C2F86958695BC
:100ED000837019F0813061F003C1002321F08D2F60
:100EE0009C2F937002C080E090E00E947A2600C19F
:100EF000002321F08D2F9C2F937002C080E090E0A2
:100F00000E949F26F5C08C2F837079F50111ECC0EB
:100F10004D2F429546954770440F440F2D2F2F704B
:100F2000042E01C0220F0A94EAF7D4FF08C08FE014
:100F300090E001C0880F4A95EAF7809501C080E0F3
:100F4000C695C695C370822BC23049F058F4C130A3
:100F500019F00E944509C8C00E943F09C5C00E94FF
:100F60004B09C2C00E943C09BFC0002319F08C2F5E
:100F7000817001C08695882309F4B6C04D2F429533
:100F800046954770440F440F2D2F2F70042E01C03B
:100F9000220F0A94EAF7D4FF08C08FE090E001C066
:100FA000880F4A95EAF7809501C080E0C695C695FE
:100FB000C370822BC23049F058F4C13019F00E943E
:100FC000910992C00E948B098FC00E9497098CC022
:100FD0000E94540989C0CF70002339F08C2F0E94E1
:100FE00066098D2F0E9474067FC08D2F0E947B069C
:100FF0008C2F0E94720978C0D23F21F128F4D03F93
:1010000041F0D13FC1F054C0D33F19F1D43F79F042
:101010004FC0002341F0153008F062C08C2F8F7153
:101020000E947F095DC0163008F05AC0F7CF80914A
:101030003E0382FD18C0002339F08C2F8F710E946F
:1010400066094EC00023C9F38C2F8F710E9472096C
:1010500047C0002329F08C2F8F710E945D0940C08A
:101060000E9459093DC00023A9F00E94CA0D843096
:1010700039F40E94080F8C2F8F710E9472094CC0A6
:10108000153008F049C0CF718C2F0E94660963E0CB
:101090008C2F07C0153040F00E94080F64E08C2FA1
:1010A0008F710E94EA0E38C081E00E94120F34C096
:1010B000002331F0112309F28D2F0E94E20510C0A8
:1010C000112311F2D93349F49FEFE7EEF3E0915089
:1010D000E040F040E1F700C000008D2F0E9428069C
:1010E00088EF8E0D843020F40E9454260E946905FA
:1010F000FF20A1F00E94CA0D80FD10C0F6011582EC
:101100000E94C40D0E946609C6010E94AB080E949D
:10111000C40D0E94720902C0F12CE6CFCDB7DEB734
:10112000E8E00C9442300F931F93CF93DF93EC01D0
:10113000688179818D810E94630A8C010E949D09DA
:101140000E942F09B801CE010E948206DF91CF9143
:101150001F910F910895CF93DF93FC0124812223E7
:10116000D1F0EC010E943F0581110FC00E94E40DF7
:10117000882389F08D81882371F080913E0382FF5E
:101180000AC082E00E94120F06C0CE010E9493089E
:10119000CE010E949104DF91CF910895882321F020
:1011A0000E94010E0E94BB0E0895882321F00E9428
:1011B000070E0E94BB0E089580E090E00E947A2600
:1011C00080E090E00E949F260E940E0E0E94BB0EBF
:1011D00008950E9499270E94DC0808950E94FB0D43
:1011E0000E94E908089592959F70963079F010F466
:1011F000925001C09A50923068F4803F69F018F420
:10120000883E40F409C0843F29F406C0883E20F09F
:10121000813F11F080E0089581E00895FC01248170
:10122000222339F0808191810E94580A0E94F3089C
:10123000089580E00895A6E0B0E0E1E2F9E00C94C2
:101240002C302696E2E00C944830A7E0B0E0EBE2C8
:10125000F9E00C942C302796E2E00C944830089585
:1012600008950E94300908950E94310908950E944E
:1012700034098093CE0108950E9437090895909112
:10128000CE01892B0E94370908959091CE018923C0
:101290000E94370908959091CE0189270E9437094D
:1012A00008950E94300908950E9451098093CD014C
:1012B000089580E00E945409089591E001C0990FBB
:1012C0008A95EAF7892F0E945409089521E030E0B9
:1012D00001C0220F8A95EAF78091CD01822B0E94EE
:1012E0005409089521E030E001C0220F8A95EAF701
:1012F00020958091CD0182230E945409089521E018
:1013000030E001C0220F8A95EAF78091CD01822753
:101310000E94540908959091CD01892B0E9454098F
:1013200008959091CD0189230E94540908959091C8
:10133000CD0189270E94540908950895962F97702A
:10134000A1E001C0AA0F9A95EAF793E07695679518
:101350009A95E1F7FB01EE0FFF1F6E0F7F1FFA0159
:10136000E60FF71F40E050E0682F70E090819B018E
:10137000042E02C0369527950A94E2F72170219534
:1013800029272A23292721934F5F5F4F4330510597
:1013900069F708959B01782F777043E096958795BC
:1013A0004A95E1F7FC01EE0FFF1F8E0F9F1FF90119
:1013B000E80FF91F40E050E080E0219130E0072E77
:1013C00002C0369527950A94E2F721703327042E40
:1013D00001C0220F0A94EAF7822B4F5F5F4F433020
:1013E000510559F70895282F903FB9F0862F622FA5
:1013F000933058F4233048F470E023E0929F600D5E
:10140000711D112447EC51E006C09C5F923028F416
:1014100070E044EC51E00E949E090895903FC9F0AD
:10142000933070F4833060F4282F30E067EC71E083
:10143000A901E3E09E9F400D511D1124CA0106C081
:101440009C5F923030F464EC71E090E00E94CA0935
:10145000089580E00895CF92DF92FF920F931F933B
:10146000CF93DF936C010091CD018091CE01082BC9
:10147000C7E0D0E010E0C8010C2E02C0959587951A
:101480000A94E2F780FD04C02197A8F7F12C07C069
:10149000FC2EB6018C2F0E943A120197A9F38F2DD2
:1014A000DF91CF911F910F91FF90DF90CF90089522
:1014B000CF93DF93EC010E942B0ABE010E943A12E7
:1014C000DF91CF9108951F93CF93DF93EB0190911C
:1014D000C301992321F0CB010E94580A13C088232D
:1014E00049F0CB010E942B0A182F682FCE010E94D1
:1014F000F30904C0CB010E940E0A182FBE01812FF0
:101500000E943A12DF91CF911F910895E1E0F0E03F
:10151000DF0102C0AA0FBB1F6A95E2F7BD01DF0120
:1015200002C0AA0FBB1F4A95E2F7AD01462B01C0CE
:10153000EE0F2A95EAF7942F9823491302C08E2BB9
:101540000895E0958E230895242F462F682F8091CB
:10155000CD010E94860A0E94540908951F93CF93DB
:10156000DF93C091CF0117E08091D001C817A1F09F
:10157000D0E01C9FF0011D9FF00D1124EF52FE4F93
:1015800020813181428153816481758186810E94ED
:1015900025092196C770E8CFDF91CF911F9108955B
:1015A0002091090230910A0240910B0250910C02E5
:1015B00060910D0270910E0280910F020E94250928
:1015C00008952091CF019091D00157E02917A9F0FB
:1015D00030E0529FF001539FF00D1124EF52FE4F67
:1015E0007181761306C07081781303C075817413FE
:1015F00006C02F5F3F4F2770E9CF80E0089581E05C
:101600000895A0E0B0E0E7E0FBE00C942730809183
:101610000F0282958F7009F052C080910E028823CC
:1016200009F44DC0C091CF0187E0D82E8091D00140
:10163000C81709F444C0D0E0DC9E8001DD9E100D87
:101640001124F801EF52FE4F84818823A9F1918182
:1016500080910A02981330C09081809109029813FA
:101660002BC08581811128C0E280F38080910B021C
:1016700090910C02E81AF90A60E089E092E00E9479
:101680007A0469E072E00E947F1BE816F906A0F474
:1016900080910F028F70806180930F02F801E952F0
:1016A000FE4F80818F708061808389E092E00E948C
:1016B000AB080E94AE0A03C02196C770B7CFCDB762
:1016C000DEB7E7E00C944330A4E1B0E0EAE6FBE0EB
:1016D0000C941F308C0186E0F801DE011F9601900A
:1016E0000D928A95E1F7F8017480E58089E0A82ED3
:1016F00082E0B82E80910D0281111CC0772009F480
:101700004EC0EE2009F448C0C8010E940E09F82E10
:10171000882309F441C087E0F801A9E0B2E0019014
:101720000D928A95E1F789E092E00E94D9050E9426
:10173000010B8DC1F80150806180C280D380F09090
:101740000E0280910B0290910C024601881A990AB0
:1017500060E089E092E0FF2009F407C10E947A046A
:1017600069E072E00E947F1B8816990608F0A6C007
:101770007720A9F080910F02382F307F20910A0244
:10178000F8019181332371F0291709F465C0C8016C
:101790000E940E09811169C0C8010E94AB08FF2494
:1017A000F39459C1291316C020910902908129137D
:1017B00011C0E1100FC08F70806180930F020E94F2
:1017C000D00A89E092E00E94AB0880910F02F801F4
:1017D000868340C1E1103AC040E0662D852D0E940D
:1017E000E10A40E0662D852D0E94E10AE82E811174
:1017F00031C15F86688A8F8598890E94580A292F8F
:1018000022952F70243020F49F70223028F009C0D8
:101810002A50223080F014C0992349F0811107C06A
:1018200013C0992321F0F8019681907F69F0805EC2
:10183000883030F409C0803F38F0815F833020F079
:10184000C8010E94AB08EF2CFE2C05C180910F024D
:10185000816080930F02FEC020910902F8019081FF
:10186000291395CFE11093CFBFC0EE2009F494CF98
:1018700020910F02822F82958F7090E002978CF05A
:101880008091090290910A0299878887DB86CA862F
:1018900080910D028C871D862E87CE0108960E94AE
:1018A000AB0887E0F801A9E0B2E001900D928A95BB
:1018B000E1F70E94010B0E94D00A71CF80910F02C4
:1018C000982F907FB1F46C2DDA8AC98A452D562D58
:1018D0007A89872D9E2D0E941B0989E092E00E9443
:1018E000AB0887E0F50111928A95E9F70E94D00ACA
:1018F000B1C0772009F453CF20910A02F8019181F9
:10190000291311C020910902908129130CC0E11004
:101910000AC08683C8010E94AB0887E0F5011192D6
:101920008A95E9F798C0C8010E940E09882309F436
:1019300033CFEE2009F430CF20910F02822F829511
:101940008F7090E002970CF4ACCF809109029091D7
:101950000A029A838983DC82CB8280910D028D8377
:101960001E822F83CE0101969ACF0E947A0469E0ED
:1019700072E00E947F1B8816990608F059C07720F4
:1019800009F40DCFFE2CEE2009F406CF90910A0247
:10199000F801818198133EC09091090280819813CB
:1019A00039C080910B0290910C02C81AD90AF8EC48
:1019B000CF16D10430F580910F0280FD22C08295B0
:1019C0008F70482F50E041155105D9F020910F023A
:1019D000F80126834F30510541F08F5F982F929583
:1019E000907F822F8F70892B8683C8010E94AB085D
:1019F00087E0F801A9E0B2E001900D928A95E1F745
:101A000026C087E0F801A9E0B2E001900D928A9526
:101A1000E1F721C0C8010E940E09811142CF8091D7
:101A20000F02816080930F02C8010E94AB0813C0AF
:101A30006C2DDA8AC98A452D562D7A89872D9E2DDF
:101A40000E941B0987E0F50111928A95E9F70E942F
:101A5000D00A01C0F12C8F2D6496EFE00C943B303E
:101A6000AEE0B0E0E6E3FDE00C942B302887398748
:101A70004A875B876C877D878E87CE0108960E9498
:101A8000640B882361F06C856623A9F1288539856C
:101A90004A855B857D858E850E9425092CC087E05F
:101AA000FE013896DE01119601900D928A95E1F7BC
:101AB0006C85662301F12091D00130E0C9010196C7
:101AC000877099274091CF0150E084179507E1F185
:101AD0006D8397E0929FD001939FB00D1124AF5278
:101AE000BE4FFE01319601900D929A95E1F78093D9
:101AF000D0010E94AE0A17E08091CF019091D001F1
:101B0000891779F1189FC00111248F529E4F0E94AE
:101B1000640B882331F1E091CF011E9FF001112465
:101B2000EF52FE4F20813181428153816481758162
:101B300086810E9425098091CF0190E001968770EF
:101B400099278093CF01D8CF0E94EE081092D00140
:101B50001092CF01E9E0F2E087E0DF011D928A9563
:101B6000E9F72E96E3E00C9447300E94602820911C
:101B70003B0230913C02821B930B9C0181E0283890
:101B8000334108F480E0089580913A028695869565
:101B90008695089580913A02877008950E94602882
:101BA0002091380230913902821B930B883893417F
:101BB00040F080913A0282FB882780F991E08927E2
:101BC00001C080E08170089590913A02977081E0A1
:101BD00009F480E008958091680208959091680268
:101BE000892B8093680208958095909168028923DB
:101BF00080936802089510926802089580916702A8
:101C0000089590916702892B8093670208958095CB
:101C1000909167028923809367020895109267026A
:101C2000089580913E02089508950E94140E08952B
:101C30000E94150E0895CF9390913E029823891724
:101C400079F0C82F0E94602890933C0280933B0259
:101C500080913E028C2B80933E028C2F0E94180EA6
:101C6000CF91089590913E02292F282399F08095D5
:101C7000892380933E02882319F00E94602802C0C5
:101C800080E090E090933C0280933B0280913E0282
:101C90000E94180E089580913E02882349F0109208
:101CA0003E0210923C0210923B0280E00E94180E0D
:101CB0000895CF93C091680280916702C82B8091EC
:101CC0003E02882369F00E94B50D81110E944B0EDF
:101CD00080913E02C82B0E94C42681110E944B0EA7
:101CE0008C2FCF910895CF93DF93C0910201D091B3
:101CF00003010E94590E8883C0910201D091030113
:101D000048E050E060E372E0CE010E949330892BFE
:101D100059F088E0FE01A0E3B2E001900D928A95AF
:101D2000E1F7CE010E946126DF91CF910895CF9314
:101D3000DF93C0910001D09101010E94590E898367
:101D4000C0910001D091010140E250E060E172E0F9
:101D5000CE010E949330892B59F080E2FE01A0E170
:101D6000B2E001900D928A95E1F7CE010E946C26B7
:101D7000DF91CF91089580911601882339F08091E9
:101D80003D0387FF03C00E94970E08950E94730EC3
:101D900008950E94140E08950E94C90E089590910E
:101DA0003D02292F2823821729F0892B80933D0299
:101DB0000E94CC0E089590913D02292F282331F0E6
:101DC0008095892380933D020E94CC0E08950E9445
:101DD000140E089590913E0392FF17C098E0899FDA
:101DE00090011124262B20933A020E9466090E943A
:101DF0006028909339028093380280913A02869548
:101E0000869586950E94E70E08950E9466090895BA
:101E100010923A02109239021092380280E00E9429
:101E2000E70E089590913A028095892380933A02B3
:101E3000282F277069F4981759F090913E0392FF6C
:101E400007C08695869586950E9472090E94080FA4
:101E5000089590913E0392FB222720F9281769F0FC
:101E600080FB92F990933E0380913D0390913E0355
:101E70000E94720F82E00E94120F089580913E032B
:101E800082FB882780F991E089270E94290F089515
:101E900081E00E94290F089580E00E94290F089593
:101EA0006FEF7FEF80E090E00E940231089580E0C4
:101EB00090E00E94CE30863E9E4F19F40E944E2440
:101EC000089580E0089582E090E00E94C030089577
:101ED00083E090E00E94C030089584E090E00E948A
:101EE000CE300895BC0184E090E00E940231089554
:101EF000AB01BC018FE090E00E94F6300895AB0189
:101F0000BC0183E190E00E94F630089560E070E04B
:101F1000CB010E947F0F089560E070E0CB010E942A
:101F2000780F0E94860F0895A8E0B0E0EAE9FFE08C
:101F30000C942C3066EE7EEF80E090E00E9402313F
:101F400060E082E090E00E94E43081E08093CE0186
:101F500061E083E090E00E94E43060E074E184E0BE
:101F600090E00E94023160E086E090E00E94E43060
:101F70006FEF87E090E00E94E43040E050E0BA016B
:101F800088E090E00E94F63060E084E290E00E94F9
:101F9000E43060E087E190E00E94E43060E08CE0B3
:101FA00090E00E94E43060E08DE090E00E94E43038
:101FB00019821A821B821C821D821E821F82188631
:101FC00048E050E068E170E0CE0101960E94D43014
:101FD00040E050E0BA0180E290E00E94F63080E0FC
:101FE0000E9467240E949C240E948C0F2896E2E0A5
:101FF0000C9448300E94940F0895A6E0B0E0E3E00E
:10200000F0E10C942A300E9460288C0180916902D2
:1020100090916A020817190781F019821A820E94AA
:102020006028682F49815A81792F80E090E00E94D2
:10203000940510936A02009369022696E4E00C94DA
:1020400046300E946C2860937602709377028093EA
:102050007802909379026093720270937302809376
:1020600074029093750208950E946C286093760222
:1020700070937702809378029093790260936E0256
:1020800070936F028093700290937102089581E0C3
:10209000089581E008950E944910089508950E94CE
:1020A0004E1008950E944E1008950E9452100895F7
:1020B0000E944E1008950E94581008950E944E10DC
:1020C00008958AE293E10E94C6140E948E180E942D
:1020D0005E100E945B1008950E944F100E944E10E7
:1020E00008950E9446130E94680508950E9457288B
:1020F0000E94AC240E94F11B0E941B140E947110CC
:102100000E94BB170E9455100895A6E0B0E0EBE8CE
:10211000F0E10C9423300E944710811103C00E940B
:10212000FD0F53C00E9431148BE6E82E82E0F82E9A
:10213000670100E0F60111916F01802F0E94761374
:1021400081270F5F033019F08823A1F302C0882391
:1021500031F380917A0281FD0E947C130E944B1022
:10216000A82E10E099249394812F0E947613B82E04
:10217000F701C080C82609F100E0DD24D3948C2D3E
:102180008D21A9F0AA2099F009831A830E94602862
:102190009C838B839D8291E08B2D8D2109F490E0AF
:1021A00049815A816B817C818D810E9494050F5FEA
:1021B000DD0C033021F7F701B0821F5FFFEFEF1A4C
:1021C000FF0A133089F60E9421100E94C7230E9443
:1021D00008180E94681C81110E9434100E947B051F
:1021E0002696EBE00C943F301F93CF93DF930E9431
:1021F0003F12EC01C11580E5D807E8F5C11590E460
:10220000D90708F0A8C0C03ED10530F5CD3CD105B6
:1022100008F094C0C83AD10578F4C53AD10508F061
:1022200083C0C130D10509F47CC008F4F2C0C430C9
:10223000D10508F0F1C0EDC0C33CD10508F0E9C0FC
:10224000C85AD0E0CC0FDD1FC85ADE4F0990D881A4
:10225000C02DCE019464E1C0C11580E2D80708F01A
:10226000CBC0C11591E0D90708F06BC0C83ED105BD
:1022700008F4D2C0CEC0C03682E5D80728F5C034F5
:1022800092E5D90708F079C0C03282E5D80708F096
:102290006CC0C11592E5D90708F481C04C2F469552
:1022A000469580E2489FA0011124C37021E030E0F0
:1022B000C90102C0880F991FCA95E2F7EA01C82B2D
:1022C000D92BCE019D68A9C0C03A82E5D807B8F4E1
:1022D0008C2F8F71C03892E5D90708F07BC08695A6
:1022E000869590E2899F90011124C37081E090E06F
:1022F00002C0880F991FCA95E2F79A6868C0C03C6F
:1023000082E5D80708F46DC0C03E92E5D90708F011
:1023100080C0CF71DD27DC2FCC27CE01806F906A83
:102320007CC081E090E079C0C55AD0E0C257DE4F52
:102330008881C82FD0E0CE0190646FC0CE01906537
:102340006CC08D2F0E94DB12182FCE0199270E949E
:102350003F121F715CC0CE0199270E943F12CC270B
:10236000DF70D06A8C2B9D2B58C0CF71D0E0DC2F52
:10237000CC27CE01816F906A50C08C2F8F718695CB
:10238000869590E2899F90011124C37081E090E0CE
:1023900002C0880F991FCA95E2F79C6818C08C2F5D
:1023A0008F710E94DB1295E0D695C7959A95E1F75B
:1023B000CF70D0E0DC2FCC27282F30E084FF05C081
:1023C00084E0220F331F8A95E1F7D069CE01822B7A
:1023D000932B23C090E0D82FCC27CE01846F906A36
:1023E0001CC08C2F8F710E94DB128F7190E0D82F50
:1023F000CC27CE01906211C08D2F8F710E94DB120D
:10240000182FCE0199270E943F121F719062912BC5
:1024100004C080E090E001C0CE01DF91CF911F9118
:1024200008952091170330911803232B01F5703F75
:1024300039F4603FE1F480915F0390916003089567
:10244000733038F4633098F4462F672F0E941420BD
:1024500008957D3F21F4623050F441E005C07C3F97
:1024600031F4623020F440E00E942020089580E0A2
:1024700090E008950E9411120E94F410089582388D
:10248000910569F1B0F48133910509F475C048F400
:102490008932910509F467C08A32910509F471C047
:1024A00008958533910509F459C089339105B9F030
:1024B0000895833E910589F138F4803E9105D1F06D
:1024C000823E910529F10895863E9105C9F1873E26
:1024D0009105D9F1843E910509F06CC027C0209187
:1024E0003D0320FD57C021FD55C020913E0323FD33
:1024F0005BC0089580913D0380FD48C080913E03FC
:1025000080FF48C080913D0384FD46C083EE51C0EA
:1025100080913D0382FF3CC0F5CF80913D0382FD59
:1025200037C080913E0380FD35C0ECCF80913E03E3
:1025300081FF36C080913D0384FD2EC087EE39C0F7
:1025400080913D0383FF2AC0F5CF80913D0383FD39
:1025500025C080913E0381FD23C0ECCF80913D03D7
:1025600085FD22C01FC080913D0385FD1BC0809169
:102570003E0383FF19C00AC080913D0386FD16C04B
:1025800017C080913D0386FD13C010C089E311C0C0
:1025900082EE0FC080EE0DC080E00BC086EE09C059
:1025A00084EE07C085E305C089E203C08AE201C06A
:1025B00081E390E0089590913D0392FF10C041E0C7
:1025C000282F2471243009F040E031E0282F2871B1
:1025D000283009F030E0431711F02CE0822793FFF8
:1025E00010C041E0282F2471243109F040E031E08F
:1025F000282F2871283109F030E0431711F02CE022
:10260000822730913E0330FF10C051E0282F217106
:10261000213009F050E041E0282F2871283009F0DE
:1026200040E0541711F029E0822731FF10C041E04B
:10263000282F2171213109F040E031E0282F287145
:10264000283109F030E0431711F029E0822794FD8A
:10265000877E089580E008950E94500F08950E949B
:1026600031148FE39CE90197F1F700C000000E944C
:10267000311480E00E94761380FF04C00E942C1366
:102680000E94AD2808950E942F1308950E94570FAD
:10269000811102C00E94FA0F0E94630F80937A0298
:1026A0000E946D0F90933E0380933D030E9443135D
:1026B0000E94680F0E943C098091CD010E9451093F
:1026C0000895E82FF0E0EE5BFC4F2081822F90E030
:1026D00021E030E002C0220F331F6A95E2F7282381
:1026E000392381E0232B09F480E00895E82FF0E0FE
:1026F000EE5BFC4F80810895089580EA8A95F1F79A
:10270000089500C008950E947D13089508950E94C1
:10271000861308950E94871308950E9486130895D2
:102720000E948D130895F894E82FE295EF70F0E081
:1027300031A1282F2F7081E090E001C0880F2A95E9
:10274000EAF7982F9095932391A392A1892B82A3C6
:102750007894089586EF0E94931385EF0E94931357
:1027600084EF0E94931381E90E94931380E90E94F1
:10277000931384E90E9493130895A0E0B0E0E3EC82
:10278000F3E10C9426308C01C62FD0E0CE018C569C
:102790009E4F7C01FC0190819F3F09F447C0D62EDB
:1027A000F894E92FE295EF70F0E081A19F7021E0AD
:1027B00030E001C0220F9A95EAF7822B81A382A113
:1027C0002095282322A378940E948113E1E9F1E067
:1027D00044E951E031E0C12C21912F3F89F0A22F33
:1027E000A295AF70B0E090968C9190E02F7002C0EF
:1027F000959587952A95E2F780FD02C0832F01C049
:1028000080E0C82A330F4E175F0731F7F701808148
:102810008F3F11F00E94931361E0C11001C060E08E
:102820008D2D0E948313C00FD11FC882CDB7DEB794
:10283000E8E00C9442300E94AA1383E0E2E4F3E063
:10284000DF01982F1D929A95E9F7EFE3F3E0DF019E
:102850001D928A95E9F783E00E9470140E949013FC
:102860000895A3E0B0E0E7E3F4E10C942B30198283
:102870001A821B8260E0CE0101960E94BD1361E0C6
:10288000CE0101960E94BD1362E0CE0101960E9426
:10289000BD1343E050E0BE016F5F7F4F8FE393E0D5
:1028A0000E94933021E0009709F420E0892B49F041
:1028B00089819A81AB8180933F0390934003A093D9
:1028C000410343E062E473E08FE393E00E947114FC
:1028D000182F0E948A13812F2396E3E00C9447302F
:1028E0000895EF92FF920F931F93CF93DF937C0194
:1028F0008B01C42F222351F081E080937D020E943E
:10290000602890937C0280937B0204C080917D02BA
:10291000811102C080E01AC080917B0290917C02FC
:102920000E9478280597B0F3D0E0AE01B701C80146
:102930000E949330892B39F0AE01B701C8010E9483
:10294000A03081E001C080E010927D02CDB7DEB7FB
:10295000E6E00C9444300E943E2A0E9476100E94C9
:102960004B2A08950E94502A0E9485100E946A2ACC
:1029700008950E94F7270E94242A0E9461100E9455
:10298000AB140E94B2140E946C10FBCF9093BD0157
:102990008093BC010895EF92FF920F931F93CF9302
:1029A000DF938B01682F11110AC0442329F0E82F0F
:1029B000F0E0E658FD4F6491762F862F75C0212FE9
:1029C00030E0E82FF0E0442321F0E658FD4FE49199
:1029D000F0E046E0049FC0011124CFEFD0E0BE013B
:1029E0000E94E72F4BEA4603C001479F900D112438
:1029F000800F911D800F911D982F990F890FAE01A7
:102A0000421B530B4E9FD0014F9FB00D5E9FB00DE8
:102A100011249B2F189FA0011124452F55278E01AB
:102A2000041B150B0E9FA0010F9F500D1E9F500DF4
:102A300011247E01E81AF108E29E8001E39E100D48
:102A4000F29E100D1124212F3327C21BD30BCE9FD2
:102A50009001CF9F300DDE9F300D11246230710543
:102A6000A9F048F46115710569F061307105C9F488
:102A70008B2F752F0DC06430710581F058F06630D2
:102A8000710579F47E2F8B2F932F0DC0832F7B2F11
:102A90009E2F09C08E2F7B2F952F05C08E2F732F51
:102AA00002C07E2F852F692FCDB7DEB7E6E00C94EC
:102AB000443041E00E94CB1408950E9459150895B6
:102AC000CF93DF93762FE901682F842F0E945D1545
:102AD000798368838A83DF91CF910895809145033C
:102AE000982F96959695913021F08370846080930D
:102AF00045030895A0E0B0E0E0E8F5E10C9426304D
:102B000088E090E00E94C8306B017C0184E290E094
:102B10000E94C030282F30E040E050E060E070E0DC
:102B200080E090E000E20E945330B22FA32FF42FF8
:102B3000E52FD62FC72F97018601BC29A12BF22B99
:102B40005E2F532B2B2F3A2F4F2F6D2F7C2FCDB76E
:102B5000DEB7E8E00C944230A0E0B0E0E2EBF5E153
:102B60000C94223049015A016B017C010E946E15C0
:102B70008401A4016A2D7B2D88E090E00E94F6304C
:102B800094014A2D5B2DB601C70100E20E946E3010
:102B9000622F84E290E00E94E430CDB7DEB7ECE033
:102BA0000C943E30E5E4F3E0208131814281538191
:102BB00064817581868197810E94AC150895E5E452
:102BC000F3E025E0208311828FEF828383831482D8
:102BD000758130E04FEF5FEF60E0868197810E9462
:102BE000AC1508958091450380FF03C086958695B6
:102BF000089580E0089590914903933018F49F5F01
:102C000090934903882391F0209145033091460326
:102C100040914703509148036091490370914A03E2
:102C200080914B0390914C030E94AC15089581E074
:102C30000E94FB15089590914903992319F0915032
:102C400090934903882391F02091450330914603E6
:102C500040914703509148036091490370914A03A2
:102C600080914B0390914C030E94AC15089581E034
:102C70000E941B160895809149030895809349038B
:102C8000662389F0682F20914503309146034091D7
:102C900047035091480370914A0380914B039091F0
:102CA0004C030E94AC15089560E00E943E16089502
:102CB00080914603089580914703089580914803C9
:102CC000089570E00E94331D089560910501809180
:102CD000450380FF0BC08091040123E0829FC00167
:102CE0001124835B9C4F0E94611608958091060118
:102CF00090910701891778F7E82FF0E09F01220FE4
:102D0000331FE20FF31FE35BFC4F1182108212822C
:102D10008F5FF0CFE5E4F3E020812E7F20833181C7
:102D20004281538164817581868197810E94AC15AF
:102D30000E9465160895E5E4F3E080818E7F80832C
:102D40000E94651608959091450390FF16C09091DA
:102D5000060120910701921770F4E92FF0E0DF01DE
:102D6000AA0FBB1FEA0FFB1FE35BFC4F818360834D
:102D700042839F5FF0CF0E9465160895A3E0B0E004
:102D8000E4ECF6E10C9428309091450390FF31C0BB
:102D9000E22E142F062FF82EE92FE695E695F0E0A7
:102DA000E956FE4F808180937F029C7F943059F4D6
:102DB0009E012F5F3F4F8F2D0E9460154B816981CF
:102DC0008A810E94A316F092460300934703109352
:102DD0004803EE2071F02091450360914903709102
:102DE0004A033F2DA80180914B0390914C030E9410
:102DF000AC152396E6E00C944430E5E4F3E09181D1
:102E0000282F4381628188E0890F0E94BE160895B1
:102E100081E00E94FD160895E5E4F3E09181282FFA
:102E20004381628188EF890F0E94BE16089581E078
:102E30000E940C170895E5E4F3E0628121E1620F3E
:102E400008F46FEF282F438181810E94BE160895F8
:102E500081E00E941B170895E5E4F3E0628121E11F
:102E6000621B08F460E0282F438181810E94BE1616
:102E7000089581E00E942C170895E5E4F3E0438172
:102E800021E1420F08F44FEF282F628181810E94D7
:102E9000BE16089581E00E943D170895E5E4F3E031
:102EA000438121E1421B08F440E0282F62818181A7
:102EB0000E94BE16089581E00E944E17089520E0FA
:102EC0000E94BE1608952091450320FF1EC0237066
:102ED000246020934503662381F03091460340919E
:102EE0004703509148036091490370914A038091D0
:102EF0004B0390914C030E94AC15409148036091A4
:102F00004703809146030E945F170895682F81E070
:102F10000E946317089581E00E9486170895682F24
:102F200090914503969596958FEF890F09F481E06E
:102F30000E946317089581E00E948F17089561E051
:102F40000E9463170895E5E4F3E080818160808347
:102F5000869586950E949F1708958091450380FF6E
:102F600003C00E948A1608950E94A317089560E086
:102F70000E946317089580917E0281113DC00E94D6
:102F8000570F811104C00E94FA0F0E94DF150E94A2
:102F90007A1520934503309346034093470350939B
:102FA00048036093490370934A0380934B039093C3
:102FB0004C032C7FA1F40E94DF150E947A15209308
:102FC000450330934603409347035093480360936F
:102FD000490370934A0380934B0390934C030E94E0
:102FE0006E158091450380FF04C0869586950E94EA
:102FF000B71781E080937E020895E5E4F3E08081D5
:1030000081608083869586950E94B71708950895FC
:103010000895882311F0FA0101C0FB010995089574
:103020001F93CF93DF93FB01158111114AC0EC016F
:103030000E94EB0D8272FE01E052F847E531F10586
:1030400020F4EE59FF4F0C940F3011E03AC00E946B
:10305000AD1737C04BE957E16BE877E104C04BE8A7
:1030600057E16BE977E10E9409182BC047E157E16E
:1030700068E077E1F8CF48E057E167E177E1F3CF27
:1030800049E357E168E277E1EECF48E257E169E3CF
:1030900077E1E9CF4BE557E16AE477E1E4CF4AE431
:1030A00057E16BE577E1DFCF47E356E167E176E192
:1030B000DACF47E156E167E376E1D5CF81E00E94C0
:1030C0009F17812FDF91CF911F91089581152CE7D4
:1030D000920759F48091190390911A03892B19F4DE
:1030E00080E090E0089580E09CE70895E1E8F2E058
:1030F00080E090E068E57BE14EED5AE125E83AE1B9
:1031000077836683518740873387228797878687AF
:10311000019670968830910599F708950E94761867
:103120000895CF92DF92FF920F931F93CF93DF9377
:10313000CDB7DEB72A970FB6F894DEBF0FBECDBF6E
:10314000603209F08AC1DC011196EC9111974E2F83
:1031500050E04E30510508F080C18C01FA01E95869
:10316000FF4F0C940F3088E0E7E1F1E0DE011196AB
:1031700001900D928A95E1F780E2F80111928A950B
:10318000E9F786E0D8018C9311961C92119712965C
:103190001C92129713961C92139788E0FE013196A9
:1031A000149601900D928A95E1F757C18CE4FD01C8
:1031B000808381E08183128213824FC1DC011396E8
:1031C0008C91139790E0982F882712962C91820F5C
:1031D000911D092E000CAA0BBB0B35E0880F991F1F
:1031E000AA1FBB1F3A95D1F7AC01BD01405E5F4FEE
:1031F0006F4F7F4F481759076A077B0708F42DC1A7
:103200008C34E1E09E07A105B10508F026C14D34DC
:10321000F1E05F076105710520F04CE451E060E0EA
:1032200070E0481B590BBC0166587C4FC8010E94D6
:103230008A3013C1DC011296FC9012971396DC9031
:1032400040E06D2D8F2D0E94671EF80190838183D1
:1032500041E06D2D8F2D0E94671ED80112969C9320
:10326000129713968C93F9C0FC018581968198275B
:10327000892798270E94661841E0D80114962C915E
:10328000211101C040E09C01F801638182810E940C
:10329000A01EE3C040E250E06FEF70E00E94A93052
:1032A00080911903D8018C938091170311968C9308
:1032B000119712961C92129713961C9213971496BC
:1032C0001C92149782E015968C93C7C081E090E021
:1032D000909318038093170382E390E09093160372
:1032E000809315030E946028909314038093130326
:1032F000B4C08091170390911803892BC9F160E045
:1033000080E00E946113D82E62E080E00E94611389
:10331000F82E80911303909114030E94782885362B
:10332000910500F1DD20F1F0FF20E1F00E9460281E
:1033300090931403809313038091150390911603C7
:1033400001979093160380931503892B89F41092AB
:1033500018031092170381E090E090931A03809372
:10336000190306C082E390E090931603809315033F
:1033700080911903F80180838091170381838091E4
:10338000150382836AC010921A031092190365C054
:1033900040E250E06FEF70E00E94A9305EC0DC01B7
:1033A00012968C91813009F441C090F1823009F07D
:1033B00054C0D8011396FC908AE0F8013496DE01DF
:1033C000119601900D928A95E1F789819A810E9468
:1033D00066189A8389838B819C810E9466189C83DE
:1033E0008B838D819E810E9466189E838D838F8141
:1033F00098850E94661898878F83BE016F5F7F4F04
:103400008F2D0E94E71EF80180830E94761825C048
:1034100080E2F80111928A95E9F788E0D8018C934F
:1034200011961C92119712961C9217C0F801838175
:103430009AE0F92E9E012F5F3F4F6901D901EF2DD0
:103440001D92EA95E9F7B9010E94D21ED8018D9329
:10345000F60101900D92FA94E1F72A960FB6F894CE
:10346000DEBF0FBECDBFDF91CF911F910F91FF90B7
:10347000DF90CF900895A6E0B0E0E1E4FAE10C948B
:103480002C309093600380935F03811520E29207B4
:1034900018F40E940D0410C080EF89838A830E9473
:1034A00060288160682F9C838B8349815A817C814D
:1034B00081E091E00E9494052696E2E00C94483069
:1034C000A6E0B0E0E6E6FAE10C942C3090936003BD
:1034D00080935F03811520E2920718F40E94240470
:1034E00010C080EF89838A830E9460288160682FE2
:1034F0009C838B8349815A817C8181E090E00E948A
:1035000094052696E2E00C9448300F931F93CF93D6
:10351000DF938C01EB0161E073E08C2F0E94D21EDF
:10352000892BE1F5DD27C55FDC4F8881F801128228
:103530001882833079F048F4813041F1823071F59E
:10354000809103039091040309C0843051F08530C9
:10355000E9F024C080910503909106030097B1F033
:103560001BC080910703909108030097A9F4209154
:10357000010330910203809103039091040321150C
:10358000310541F0009741F4C90106C08091010363
:1035900090910203009711F00E94601ADF91CF9181
:1035A0001F910F910895CF93DF93EC010E943B1A76
:1035B000CE010E94601ADF91CF9108950F931F935F
:1035C000CF93DF938C01EB0161E073E08C2F0E94BD
:1035D000D21E892B09F067C0DD27F8018281813076
:1035E00039F4958192FD13C090FF11C082E00FC0A5
:1035F000823041F4F801858182FD06C080FD06C05D
:1036000083E005C086E003C085E001C084E0C55FBB
:10361000DC4F88838330B1F028F4813071F0823040
:1036200031F041C08430A9F0853079F13CC08091FF
:103630000303909104030097A1F5809101039091F9
:10364000020320C080910503909106030097E9F0E2
:1036500028C08091070390910803009711F580918D
:10366000010390910203009749F00E94D31A8091C0
:10367000030390910403009781F013C0809103032A
:1036800090910403009779F00CC080910103909110
:103690000203009741F00E94D31A80910103909198
:1036A00002030E943B1ADF91CF911F910F91089561
:1036B0000F931F93CF93DF938C01862F61E073E00C
:1036C0000E94D21E892BB1F4C0910103D091020354
:1036D000209781F0F8018281833039F4CE010E9475
:1036E000D31ACE010E94D31A02C0843018F0CE0142
:1036F0000E94D31ADF91CF911F910F910895AAE0F4
:10370000B0E0E5E8FBE10C942C309C0137552F3FED
:10371000310509F050F4BE016F5F7F4F0E94D21E49
:10372000892B19F489859A8502C088EC90E02A9645
:10373000E2E00C944830CF93DF93FB012581211107
:1037400045C0EC01D755CF3FD10511F008F03EC080
:1037500061E073E08C2F0E94D21E892BB9F5CE0157
:1037600024E0880F991F2A95E1F7FC01EF57FD4FE0
:1037700022812130C9F42091010330910203232BCF
:1037800029F12091030330910403232BF9F02091B8
:10379000050330910603232BC9F4209107033091D0
:1037A0000803232B49F012C0223081F42091050335
:1037B00030910603232B51F0FC01EA57FD4F208185
:1037C0002E7F20838F579D4F0E940C2381E0DF9135
:1037D000CF9108958FE891E00197F1F700C00000C4
:1037E0000895EF92FF920F931F93CF93DF9382E0A0
:1037F00080931D030BEA11E0C9EAD1E0AE01D801C4
:1038000021E030E08D91E82FE295EF70F0E061A1CA
:103810008F70790102C0EE0CFF1C8A95E2F7C70198
:103820009E2D9095962391A392A1892B82A3FA01B4
:103830008191AF01E82FE295EF70F0E061A18F7008
:10384000790102C0EE0CFF1C8A95E2F7C7019E2D9C
:103850009095962391A392A1892B82A381E0AD3A02
:10386000B80781F60E94EA1B50911D03E0E2F3E0E5
:1038700040E0451741F1D8012D918D01A22FA2956D
:10388000AF70B0E090968C9190E02F7002C095954B
:1038900087952A95E2F781709991A92FA295AF702B
:1038A000B0E090962C9130E09F7002C0359527953E
:1038B0009A95E2F720FD02C090E001C092E0892BCA
:1038C00081934F5FD6CFCDB7DEB7E6E00C9444309E
:1038D000A8E1B0E0EEE6FCE10C941F3010E000E05F
:1038E00082E0982E94E0A92EB12C2DEF822E772421
:1038F00073943CEF632E43E0542E80911D03181700
:1039000008F0ACC0E12EF12CF701E555FE4F8081A7
:10391000E82FE295EF70F0E0E0A1F0E08F7002C0D8
:10392000F595E7958A95E2F7E170D701A755BE4F67
:103930002C91A22FA295AF70B0E090968C9190E060
:103940002F7002C0959587952A95E2F780FD02C0F9
:1039500080E001C082E08E2BD701A05EBC4FEC91CD
:103960002E2F237030E0482F082E000C550B241703
:10397000350709F471C0EE0FEE0FE82BEC93EF70F2
:10398000F0E0E756FE4FC701825E9C4F6C019081CC
:10399000F6018081890F8083843044F1F701E55E70
:1039A000FC4F80818F5F80830E9460281D876E8618
:1039B000682F8F87988B598A7A8A412F5CEF792FED
:1039C00083E091E00E9494050E9460281B8B6C8A22
:1039D000682F8D8B9E8B5F8A188E412F5CEF792F1D
:1039E00083E090E00E94940521E001C020E0F60110
:1039F00080818D3F3CF5F701E55EFC4F8081815071
:103A000080830E94602819838A82682F8B839C831D
:103A10009D827E82412F5DEF792F82E091E00E94AE
:103A200094050E9460281F838886682F89879A875B
:103A30009B861C86412F5DEF792F82E090E00E94EB
:103A4000940521E0F6018081082E000C990BB50148
:103A50000E94FB2F8083022B1F5F4FCF802F689621
:103A6000EFE00C943B30579A2BB12F773BB1306885
:103A70004FB7F894FC01CB01880F991F680F791F8D
:103A80006E0F7F1FE617F70789F0819198E03BB929
:103A9000000000C087FF2BB9880F000000C000C0E5
:103AA00000C02BB900C09A9591F7ECCF4FBF8FE5BE
:103AB00094E00197F1F700C000000895482F50E00E
:103AC000FA013597EF33F10508F06FC0EB57FF4F60
:103AD0000C940F300E94FA0F64C080917A02817FAB
:103AE0008E7F80937A0281E08093220308958091F3
:103AF000190390911A03892B09F453C00E94B4044E
:103B000050C080917A02982F9095917090FB80F927
:103B100080937A02911145C0897F877F10C0809180
:103B20007A0281FB222720F991E0922790FB81F90C
:103B300080937A029923A9F180917A02816080931F
:103B40007A022FC080917A0282FB222720F991E02D
:103B5000922790FB82F9ECCF80917A0283FB222797
:103B600020F991E0922790FB83F9E2CF0E94EE08C2
:103B700080913D0387FB222720F991E0922790FB5B
:103B800087F980933D030DC0895301C08D5191E0A9
:103B900001C0990F8A95EAF7892F0E943C090E947B
:103BA000EE0881E0089581E0F8CF80E0089580E09C
:103BB00008950E94D71D0895CF93C82F80912203A6
:103BC000882319F0813031F02BC00E94EB0D823236
:103BD00049F504C00E94EB0D823261F48C2F0E94E3
:103BE000D91D811104C08C2F0E945E1D17C081E079
:103BF00090E014C08C2F0E94D71D81110EC0C431DB
:103C000049F018F4CB3049F00FC0C93219F0C8336D
:103C100021F00AC01092220307C081E0817006C023
:103C20001092220380E002C080E0F8CFCF91089587
:103C300088E0089550E0440F551F26E0629F400D34
:103C4000511D11249A0162E1869F200D311D11241E
:103C5000C901899608950F931F93CF93DF938830FE
:103C6000A0F4633090F4433080F40E941A1E8C015B
:103C70000E94C03090E0D82FCC27C80101960E9446
:103C8000C0309E01282BC90102C080E090E0DF9186
:103C9000CF911F910F9108950F931F93CF93DF93AF
:103CA000883080F4633070F4433060F4E9010E949E
:103CB0001A1E8C016D2F0E94E4306C2FC8010196F2
:103CC0000E94E430DF91CF911F910F910895FF92F0
:103CD0000F931F93CF93DF93883058F5623048F5E8
:103CE00024E0629F8001112438E0839F000D111DA4
:103CF000112407541F4F411103C082E090E002C01D
:103D000080E090E0F42E800F911F0E94C03090E080
:103D1000D82FCC27F11003C083E090E002C081E0EF
:103D200090E0800F911F0E94C0309E01282BC90196
:103D300002C080E090E0CDB7DEB7E5E00C944530FE
:103D40000F931F93CF93DF93883038F5623028F5B7
:103D500094E0699FE001112498E0899FC00DD11D76
:103D60001124C754DF4F411103C082E090E002C02C
:103D700080E090E0632F022F142F8C0F9D1F0E9474
:103D8000E430111103C083E090E002C081E090E0D4
:103D9000602F8C0F9D1F0E94E430DF91CF911F9107
:103DA0000F910895883080F49B01982F8AE0989FA6
:103DB000B001112467507F4F4AE050E0C9010E94D2
:103DC000B03080E090E008958FEF9FEF0895883045
:103DD00080F49B01982F8AE0989FB00111246750CE
:103DE0007F4F4AE050E0C9010E94083180E090E036
:103DF00008958FEF9FEF0895CF92DF92FF920F9378
:103E00001F93CF93DF93CDB7DEB72A970FB6F89401
:103E1000DEBF0FBECDBFC0901903D0901A0381E062
:103E200090E090931A038093190310E000E0F12CC6
:103E30004F2D602F812F0E949F039C014F2D602FDB
:103E4000812F0E944C1EF39483E0F812F1CF0F5F94
:103E5000033069F700E041E0602F812F0E94BC032E
:103E60009C0141E0602F812F0E94A01E40E0602F46
:103E7000812F0E94BC039C0140E0602F812F0E9493
:103E8000A01E0F5F023039F71F5F183079F61A82D3
:103E900019821C821B821E821D8218861F8288EC5A
:103EA00090E09A87898710E0BE016F5F7F4F812F76
:103EB0000E94E71E1F5F1830B9F7D0921A03C09214
:103EC00019032A960FB6F894DEBF0FBECDBFDF915F
:103ED000CF911F910F91FF90DF90CF900895EF92B7
:103EE000FF920F931F93CF93DF93EA017A01E60EBF
:103EF000F71E8C01C8018996CE15DF0561F00039E7
:103F0000110520F40E94C030888301C018822196D8
:103F10000F5F1F4FEFCFCDB7DEB7E6E00C94443014
:103F2000A0E0B0E0E6E9FFE10C942030EC016B0189
:103F30007A018039910508F072C080E990E08C1B0D
:103F40009D0B8617970708F46AC03E0129E2620EAE
:103F5000711C8091190390911A03892B19F0CE0CD2
:103F6000DF1C58C0C0FF11C0CE0188960E94C0302F
:103F700090E0982F8827F7012081822B81159C479C
:103F800039F48FEFF701808303C000E010E002C036
:103F900001E010E0CE018C0D9D1D560180FF17C081
:103FA000F1E0AF1AB10847018A0C9B1CC3018C0DCC
:103FB0009D1D0E94C030F401208130E0322F222765
:103FC000282B21153C4719F48FEFF4018083F7016A
:103FD000E00FF11F2FEFCF018E199F098A159B0566
:103FE00008F0BDCF808190E0982F88273181832B06
:103FF00081159C4711F4208321833296ECCFC03980
:10400000D10520F4F70160810E94E430FFEFEF1A40
:10401000FF0A2196CE018996EC14FD0481F7CDB7F5
:10402000DEB7EEE00C943C30883038F4633028F48E
:10403000433018F40E942B1E089580E090E008950C
:10404000883028F4623018F40E94671E089580E0DA
:1040500090E0089580E2089587EB92E00895EF9252
:10406000FF920F931F93CF93DF93EA017A01E60E3D
:10407000F71E8C01C801875B9E4FCE15DF0569F0E6
:10408000073B22E0120720F40E94C030888301C061
:10409000188221960F5F1F4FEDCFCDB7DEB7E6E058
:1040A0000C944430EF92FF920F931F93CF93DF93C2
:1040B000EA017A01E60EF71E8C01C801875B9E4F6C
:1040C000CE15DF0559F0073B22E0120718F468818E
:1040D0000E94E43021960F5F1F4FEFCFCDB7DEB7C0
:1040E000E6E00C944430CF93DF93C9E4D1E060E084
:1040F000CE010E94E4302196C11584E0D807B9F7BB
:10410000DF91CF910895A4E0B0E0E9E8F0E20C94EB
:104110002230F82E2FE1281708F4B4C08FEF93E077
:104120000E94C0308111AEC009E411E0FF2071F09F
:10413000011584E0180709F4A5C0C8010E94C03029
:10414000811101C0FA940F5F1F4FF0CF19821A82BC
:104150001B821C82CC24CA947801EFEFEE1AFE0A6F
:10416000C8010E94C03089831A82882309F48AC05A
:10417000813009F081C05801F2E0AF0EB11CC701D7
:104180000E94C030D82E8A83882309F47BC08FEF29
:104190008D0D833088F4780123E0E20EF11CC50117
:1041A0000E94C0308B83811102C08701D5CFCE0120
:1041B00001960E943422F9CF8BEF8D0D833078F574
:1041C000480183E0880E911CC5010E94C0308B839A
:1041D000811102C07401E9CF7801E4E0EE0EF11C18
:1041E000C4010E94C0308C838823F9F22B813C816A
:1041F0002130FFEF3F0718F0922F80E001C0C90186
:1042000026E0D21631F0E7E0DE1631F00E94D31A34
:10421000CCCF0E943B1AC9CF0E94601AC6CFF4E0EF
:10422000DF1611F07501C1CFC5010E94C030D82E34
:10423000780124E0E20EF11CC80103960E94C03010
:10424000DD2001F18823F1F0282F30E021503109E1
:10425000C29EA001C39E500D11248D2D90E00197A8
:10426000840F951F019708F4A0CFEFE9FFE0319785
:10427000F1F700C00000F6CF60E0CE0101960E9489
:10428000CD2193CF2496ECE00C943E30CF93DF9376
:1042900086319C4709F5EB010E94EB0D9D81992326
:1042A00071F08A7A91E009F490E0909323038111F0
:1042B00002C089E201C085E30E946B2709C080919A
:1042C0002303811102C089E201C085E30E94822795
:1042D0000E94BB0E80E001C081E0DF91CF91089584
:1042E000A0E0B0E0E6E7F1E20C942730E82FF0E040
:1042F000EA53FB4FD490282F26952695269530E03B
:10430000F901EA59FA4F0491877010E0082E02C0B3
:10431000159507950A94E2F701701127F901EA5AF9
:10432000FA4FE490F12C082E02C0F594E7940A9419
:10433000E2F791E0E922FF24F901EA5BFA4FC49128
:10434000D0E002C0D595C7958A95E2F7C170DD2708
:104350000115110519F081EE0E94E205E114F10446
:1043600019F086EE0E94E2058D2D0E946A06E11486
:10437000F10419F086EE0E9428060115110519F0C6
:1043800081EE0E942806CD2B19F08CE20E946A066D
:10439000CDB7DEB7E7E00C944330EF92FF920F9376
:1043A0001F93CF93DF93EC01162F0AE088818823B7
:1043B00009F455C0813009F043C08981813041F44E
:1043C0007E0182E0E80EF11C8A810E946A0609C023
:1043D000823049F47E01E2E0EE0EF11C8A810E94F7
:1043E000E205E7012FC0833041F47E01F2E0EF0ED9
:1043F000F11C8A810E942806F4CF843011F02196A6
:1044000021C02A81229680E090E030E020533109DB
:104410002A30310558F4089FA001099F500D11243E
:10442000C901840F951F21962881EFCF009751F085
:10443000EFE9FFE03197F1F700C000000197F6CFF8
:104440000E9470212196812F882309F4AFCFEFE9D4
:10445000FFE03197F1F700C000008150F5CFCDB7F4
:10446000DEB7E6E00C94443060E00E94CD21089570
:10447000A0E0B0E0EEE3F2E20C9424307C015B01BA
:10448000C42FD22FFC0185818823B1F040932603ED
:104490000E946028909325038093240380E28C0F70
:1044A000883008F052C0C77081E001C0880FCA95FB
:1044B000EAF70E94740649C080912603481335C06C
:1044C00080912403909125030E9478286C01B70104
:1044D000C5010E947F1BC816D90638F510E21D0FD2
:1044E000CD17B9F080E28C0F883040F4C77081E0BE
:1044F00001C0880FCA95EAF70E947B06183010F5B4
:1045000081E09D2F977001C0880F9A95EAF70E946D
:104510007406802F0E946A061830B8F4D77081E0C4
:1045200001C0880FDA95EAF70AC080E28C0F883064
:1045300060F4C77081E001C0880FCA95EAF70E9455
:104540007B0603C0802F0E946A06CDB7DEB7EAE083
:104550000C9440300F93FC01E851FC47E730F10523
:1045600090F5CB01EC53FF4F0C940F3006E221EE97
:1045700041EE6AE17CE723C007E225EE45EE6BE100
:104580007CE71DC006E221EE40EE68E17CE717C043
:1045900007E225EE44EE69E17CE711C006E221EE78
:1045A00042EE6CE17CE70BC007E225EE46EE6DE1E2
:1045B0007CE705C008E221E045EE6EE17CE70E9461
:1045C000382280E008C0FB018581882319F0109211
:1045D000260301C081E00F9108954115510511F0A6
:1045E000FA0109950895CF93DF93EC014A855B8525
:1045F0006E857F850E94ED228B810E94070E8C8143
:104600000E94F40D0E94BB0E86E0FE0111928A9575
:10461000E9F7DF91CF910895CF93DF93EC018D817E
:1046200081FD11C082608D838B810E94010E8C817F
:104630000E94EE0D0E94BB0E488559856E857F85D0
:10464000CE010E94ED2210922A03109229038D813F
:1046500080FD03C0CE010E94F322DF91CF91089527
:10466000CF93FB01C581CC2319F12091290330910F
:104670002A0321153105D9F028173907C1F0AC01FB
:10468000C901992724E0880F991F2A95E1F7FC01B9
:10469000EA57FD4F2081246020838F579D4FFC01F6
:1046A000518340830E940C230E940E0E01C0C0E083
:1046B0008C2FCF910895EF92FF920F931F93CF937A
:1046C000DF939C0137552F3F310511F008F059C099
:1046D000FB017C018C01112784E0000F111F8A95DA
:1046E000E1F7E801CF57DD4F95810A571D4FD801FB
:1046F0008C9190FB80F98C938581882349F10E94ED
:10470000602890932803809327038A818F5F8A8390
:104710000E94EB0D8B830E94FE0D9B81892B8B8366
:104720000E94110E8C834E815F816E857F85CE0144
:104730000E94ED22F801808181FD03C09E2D8F2D06
:1047400002C090E080E09093290380932A0319C06F
:104750004C855D856E857F85CE010E94ED22D80156
:104760008C9181FF0EC0CE010E94F322809129031B
:1047700090912A03E816F90621F410922A03109268
:10478000290381E0CDB7DEB7E6E00C944430A7E022
:10479000B0E0EDECF3E20C942A3080912903909183
:1047A0002A03892B61F180912703909128030E94AD
:1047B00078288C01BE016F5F7F4F87E0FB0111926B
:1047C0008A95E9F78091290390912A030E947F1B23
:1047D00080179107A0F48091290390912A039927CB
:1047E00024E0880F991F2A95E1F7FC01EA57FD4F55
:1047F000208122FD04C08F579D4F0E940C232796D5
:10480000E4E00C9446301F93CF93DF9387372CE777
:10481000920721F088379C4759F031C0FB01C581D0
:10482000CC2319F00E94452409C00E94452418C0D9
:10483000FB01C581CC2391F00E9448240E946609A7
:104840000E944B24D82F0E944824C82F0E94452440
:104850004D2F6C2F0E94A40AC0E012C00E94482471
:104860000E9472090E944B24182F0E944824D82FBE
:104870000E944524412F6D2F0E94A40A01C0C1E06F
:104880008C2FDF91CF911F91089580910B01089596
:1048900080910A01089580910901089585E290E0D0
:1048A0000E94C030883A81F486E290E00E94C030D5
:1048B0008C3951F487E290E00E94C03091E08E3D47
:1048C00009F090E0892F01C080E081700895CF93B6
:1048D000C82F811102C06FEF01C068EA85E290E045
:1048E0000E94E430C11102C06FEF01C06CE986E2A2
:1048F00090E00E94E430C11102C06FEF01C06EED84
:1049000087E290E00E94E430CF910895089588E214
:1049100090E00E94C030682F70E080E090E0089541
:104920000895CF93C62F0E9490246C2F88E290E0C8
:104930000E94E430CF91089580E00E94672460E0F7
:1049400070E0CB010E9491240E94FC1E0E94732003
:1049500081E00E94672408950E9486240E94872493
:104960000E9490240E944E24811102C00E949C2427
:1049700008959C01FB018581882351F0A9015757B7
:104980004038510530F4C9010E94832080E0089529
:1049900081E008952FEFFC0120830895CF93DF93EA
:1049A000EC018881813889F028F48038A1F40E94D4
:1049B0005E1610C0823861F0833869F40E94581680
:1049C00089830E945B168A8306C00E94F21502C08A
:1049D0000E943B168983DF91CF910895CF93DF9397
:1049E000EC0188818138B1F058F4803829F5D981FB
:1049F0000E945B16C82F0E9458164D2F6C2F1AC0AC
:104A00008238A1F08338C1F40E945E16482F6A8173
:104A1000898110C089810E94B7178981811103C0E3
:104A20000E949B1609C00E94FD1706C089810E9442
:104A3000541602C00E945F17DF91CF910895EF9244
:104A4000FF920F931F93CF93DF93EC01162F2091CA
:104A50001703309118039881232B51F09E3F09F0E2
:104A600015C18981833020F08550833008F00EC154
:104A70009E012F5F3F4F9B3009F4EEC050F59530FB
:104A800009F47CC0C0F4923009F443C030F4913092
:104A900009F0F8C0198289E08DC0933009F461C033
:104AA000943009F0EFC04B816A8189810E942B1EEE
:104AB0009C838D83EBC0973009F46EC008F469C005
:104AC000983009F46DC0993009F0DCC00E94D2150D
:104AD000DDC0903109F499C060F49D3009F467C0DD
:104AE00008F462C09E3009F467C09F3009F475C0B5
:104AF000C9C0923109F490C008F48AC0933109F416
:104B00009BC09E3F09F0BEC0612FCE010E9491184C
:104B1000BDC08981823041F0833069F0813009F075
:104B2000B1C00E946C2802C00E9487249A838B83A4
:104B30007C836D83ABC08091190390911A03892BFC
:104B400009F4A4C07E0122E0E20EF11C00E0802FF7
:104B50000E947613F70181937F010F5F0330B9F74D
:104B600095C08981823009F08DC06A817B818C81FA
:104B70009D810E9415300E94912488C02C813D8126
:104B80003227232732274B816A8189810E944C1E5C
:104B90007DC00E94FC1E7AC0C9010E94EE2476C02E
:104BA000C9010E94CE2472C00E942A2033C00E94F4
:104BB0002C2099838A836AC089819A8198278927C2
:104BC00098276B8170E06D31710508F05FC0AE0110
:104BD0004C5F5F4F0E942F2059C080911903909124
:104BE0001A03892B09F452C089819A819827892751
:104BF00098276B8170E06D31710508F047C0AE01F8
:104C00004C5F5F4F0E94522041C00E9473203EC003
:104C10000E94181E89833AC089819A819827892722
:104C200098276B8170E06D31710580F5AE014C5FA6
:104C30005F4F0E946F1F2AC089819A819827892718
:104C400098276B8170E06D31710500F5AE014C5F06
:104C50005F4F0E94901F1AC08091190390911A0310
:104C6000892BA1F0612FCE010E941329FFEF21EEC5
:104C700084E0F15020408040E1F700C000000E9435
:104C8000AD2804C0612FCE010E94CA24612FCE013D
:104C90000E941329CDB7DEB7E6E00C944430909320
:104CA000300380932F030895E0912F03F091300398
:104CB000309729F00190F081E02D0995089580E06A
:104CC0000895E0912F03F0913003309721F0028096
:104CD000F381E02D09950895E0912F03F0913003C1
:104CE000309739F026E0DC012C930480F581E02D2B
:104CF00009950895A3E0B0E0E0E8F6E20C942C30CA
:104D000020912D0330912E0328173907A1F090939D
:104D10002E0380932D03E0912F03F0913003309701
:104D200051F023E029839B838A830084F185E02D61
:104D3000CE01019609952396E2E00C944830A3E059
:104D4000B0E0E5EAF6E20C942C3020912B03309190
:104D50002C0328173907A1F090932C0380932B0381
:104D6000E0912F03F0913003309751F024E0298334
:104D70009B838A830084F185E02DCE0101960995FD
:104D80002396E2E00C944830E0910201F091030197
:104D9000329680911601882359F080913D0387FF58
:104DA00007C0E0910001F091010132969EE101C03F
:104DB00096E080E0915028F021912223D9F38F5F73
:104DC000F9CF0895882399F190911601992309F15B
:104DD00090913D0397FF1DC0982F969596959695B7
:104DE0009E3128F5E0910001F0910101E90FF11DDC
:104DF0002281422F50E0877021E030E002C0220F74
:104E0000331F8A95E2F72423352381E0232B91F485
:104E10000EC02091020130910301F9013296285F02
:104E20003F4F9191891729F0E217F307D1F780E0FE
:104E3000089581E008959C01FC0132969FEF80E087
:104E40004191461789F09F3F19F4411101C0982FF5
:104E50008F5F8630A9F79F3F39F0F901E90FF11D07
:104E600097FDFA956283089508959C012A5F3F4F4C
:104E7000FC014281461301C01282019682179307FA
:104E8000B9F70895262F2695269526952E3168F494
:104E9000FC01E20FF11D677021E030E001C0220F3C
:104EA0006A95EAF78281282B22830895262F26957A
:104EB000269526952E3170F4FC01E20FF11D6770E6
:104EC00021E030E001C0220F6A95EAF72095828147
:104ED000282322830895682F80911601882359F092
:104EE00080913D0387FF07C08091000190910101EF
:104EF0000E944227089580910201909103010E942F
:104F00001B270895682F80911601882359F08091FE
:104F10003D0387FF07C080910001909101010E942D
:104F20005627089580910201909103010E94352730
:104F3000089580911601882359F080913D0387FFE1
:104F400007C0E0910001F091010132968EE106C0A8
:104F5000E0910201F0910301329686E0DF011D929B
:104F60008A95E9F7089508950E94B327089583E08C
:104F7000809331030E94B4270895811102C081E01B
:104F800001C082E0809331030E94B42708950E94FB
:104F9000BD27089581E0809331030E94B4270895CE
:104FA0000E94CA27089508950E94D32708950E9459
:104FB000D42708950E94D32708950E94D3270895E7
:104FC0000E94D3270895CF930E94DD270E943114B9
:104FD0000E94DA27C0E08C2F0E947613811104C052
:104FE000CF5FC330C1F701C081E0CF91089585B78D
:104FF000806885BF85B7806885BF08951F920F922E
:105000000FB60F9211248F939F93AF93BF9380910C
:105010003203811113C08091610390916203A091CA
:105020006303B09164034196A11DB11D8093610398
:1050300090936203A0936303B0936403BF91AF9115
:105040009F918F910F900FBE0F901F901895809198
:105050006903843031F10E944B051092320320E441
:1050600088E190E00FB6F894A895809360000FBE99
:105070002093600083B7817F846083BF83B78160A2
:1050800083BF7894889583B78E7F83BF0FB6F894DB
:10509000A895809160008861809360001092600004
:1050A0000FBE08950E94EE080E945005089582E008
:1050B00084BD93E095BD9AEF97BD80936E000895EF
:1050C0002FB7F8948091610390916203A0916303DC
:1050D000B09164032FBF08952FB7F89460916103D6
:1050E0007091620380916303909164032FBF0895D0
:1050F0009C014FB7F8948091610390916203A09155
:105100006303B09164034FBF821B930B089578949F
:105110001F920F920FB60F9211248F939F93AF930C
:10512000BF938091610390916203A0916303B0915A
:1051300064030196A11DB11D8093610390936203E6
:10514000A0936303B0936403BF91AF919F918F913C
:105150000F900FBE0F901F90189587E797E79093D9
:105160000108809300089AE088E10FB6F894A895AA
:10517000809360000FBE90936000FFCF9AE088E1BB
:105180000FB6F894A895809360000FBE90936000CE
:10519000FFCF80913B03089508959B01909169038F
:1051A0009430F1F48F708093E9008FEF9091E800D4
:1051B000815095FD06C095ED9A95F1F7000081119B
:1051C000F5CF8091E80085FF0BC0BA01C90140E02E
:1051D00050E00E94142B8091E8008E778093E800C5
:1051E000089543E050E0BC0184E00E94CD2808957A
:1051F00040E250E0BC0184E00E94CD280895CF93A6
:10520000DF93EC0148E050E0BC0181E00E94CD2832
:1052100088E0FE01A3E3B3E001900D928A95E1F7E7
:10522000DF91CF910895603231F4BC0140E250E04B
:1052300082E00E94CD28089580916803811109C001
:105240000E94E42C0E94412D8091E20084608093B2
:10525000E20008951092680308950E94D0270895EF
:105260006091650381E0611101C080E00E94B72771
:1052700008959091690381E0943009F080E0609195
:1052800065030E94BD27089542E061EC81E00E9421
:105290005D2C42E261EC84E00E945D2C42E261EC14
:1052A00082E00E945D2C42E260EC83E00E945D2C73
:1052B0009091690381E0943009F080E0609165038A
:1052C0000E94C727089580916B03833009F463C05F
:1052D00030F4813071F0823009F49DC008958A3035
:1052E00009F489C08B3009F46EC0893009F0ABC075
:1052F00020C080916A03813A09F0A5C08091E8003E
:10530000877F8093E80080916E0390916F03892BD3
:1053100021F468E083E393E003C060E080E090E084
:1053200070E00E949E2B8091E8008B778093E800CC
:10533000089580916A03813209F085C080916E03DF
:1053400090916F03009719F0029709F07CC080914B
:10535000E800877F8093E8008091E80082FD05C027
:10536000809169038111F8CF6EC02091F300809184
:10537000F20090E0922B029731F48091F10081309D
:1053800011F0863021F48091F10080933B038091ED
:10539000E8008B7754C080916A03813A09F053C0CA
:1053A00080916E0390916F03892B09F04CC080911E
:1053B000E800877F8093E8008091E80080FFFCCFC1
:1053C0008091160137C080916A038132E1F58091A6
:1053D0006E0390916F03892BB1F58091E800877F70
:1053E0008093E8000E94922C80916C0380931601B8
:1053F0000E94EE08089580916A03813221F5809120
:10540000E800877F8093E8000E94922C80916D03D2
:1054100080933C03089580916A03813AA1F48091BE
:10542000E800877F8093E8008091E80080FFFCCF50
:1054300080913C038093F1008091E8008E77809307
:10544000E8000E94922C089584B7877F84BF0FB62E
:10545000F894A89580916000886180936000109214
:1054600060000FBE90E080E80FB6F8948093610072
:10547000909361000FBE0E94CA2708950E94E42CF9
:105480000E94412DE2EEF0E0808184608083789478
:105490000E94CC2F08958CE091E00E944F26089541
:1054A000809169038530A9F480916903853079F48E
:1054B0000E942728809167038823B1F30E94E32785
:1054C000882391F30E94FE2A0E94EE08EDCF0E94ED
:1054D00052280895A0E2B0E0E0E7FAE20C942C3004
:1054E00080916903843011F583E08093E900809115
:1054F000E80082FF1BC08091E80085FF0AC040E001
:1055000050E060E270E0CE0101960E94592B91E0DC
:1055100001C090E08091E8008B778093E8009923A8
:1055200029F060E2CE0101960E941F25A096E2E0DC
:105530000C9448309A0140917003509171030E947D
:10554000A22A0895492F552743305105C9F060F428
:105550004130510581F04230510509F047C08BE5DB
:1055600090E040EC55E046C04132510511F1423225
:10557000510561F13BC082E190E04BE156E03AC059
:1055800099278130910561F040F08230910559F002
:10559000039761F5E6E7F5E008C0ECEBF5E005C040
:1055A000E4EAF5E002C0E4E9F5E0849190E0AF01BF
:1055B00021C063307105D0F4660F771FFB01EA54F8
:1055C000FE4F4081518189E090E014C06330710545
:1055D00068F4FB01EE0FFF1FE055FE4F4081518143
:1055E000FB01E355FE4F808190E004C080E090E035
:1055F00040E050E0F90151834083089580E189BD86
:1056000082E189BD09B400FEFDCF8091D8008F7D75
:105610008093D8008091E00082608093E0008091C8
:10562000E00081FDFCCF0895A0E0B0E0EAE1FBE2FC
:105630000C942630EC018B017A010E94B12C81116F
:1056400033C0E114F10439F0F70180819181081B26
:10565000190BC80FD91FC12CD12C0115110519F137
:105660008091E80085FD16C08091E8008E778093D8
:10567000E800E114F10449F0F70180819181C80E3E
:10568000D91ED182C08285E00FC00E94B12C882330
:1056900021F30AC089918093F10001501109FFEFB5
:1056A000CF1ADF0ADACF80E0CDB7DEB7E8E00C949E
:1056B0004230A0E0B0E0EFE5FBE20C942630EC01D4
:1056C0008B017A010E94B12C811133C0E114F104E5
:1056D00039F0F70180819181081B190BC80FD91F80
:1056E000C12CD12C0115110519F18091E80085FD1F
:1056F00016C08091E8008B778093E800E114F104F4
:1057000049F0F70180819181C80ED91ED182C082F3
:1057100085E00FC00E94B12C882321F30AC080913C
:10572000F100899301501109FFEFCF1ADF0ADACF98
:1057300080E0CDB7DEB7E8E00C94423020917003F2
:10574000309171032617370748F06115710539F458
:105750002091E8002E772093E80001C0B901FC01F8
:1057600020E06115710579F1809169038823F1F1D9
:105770008530F1F18091E80083FD3CC08091E80024
:1057800082FD2EC08091E80080FFEBCF2091F300D6
:105790008091F20090E0922B6115710551F08830F4
:1057A000910538F421912093F1006150710901961F
:1057B000F3CF21E0089709F020E08091E8008E7790
:1057C0008093E800CECF2111CFCF0AC0809169032A
:1057D000882361F0853061F08091E80083FD0AC084
:1057E0008091E80082FFF2CF80E0089582E0089582
:1057F00083E0089581E00895209170033091710352
:105800002617370748F06115710539F42091E80033
:105810002E772093E80001C0B901FC0120E061155A
:10582000710591F180916903882309F440C08530A6
:1058300009F43FC08091E80083FD3DC08091E800FD
:1058400082FD2FC08091E80080FFE9CF2091F30016
:105850008091F20090E0922B6115710559F088302B
:10586000910540F424912093F10031966150710923
:105870000196F2CF21E0089709F020E08091E8003E
:105880008E778093E800CBCF2111CCCF0AC08091D6
:105890006903882361F0853061F08091E80083FD21
:1058A0000AC08091E80082FFF2CF80E0089582E094
:1058B000089583E0089581E00895982F973068F562
:1058C0009093E900981739F07091EC002091ED0069
:1058D0005091F00003C0242F762F50E021FD02C02C
:1058E0009F5FECCF3091EB003E7F3093EB00309127
:1058F000ED003D7F3093ED003091EB00316030934F
:10590000EB007093EC002093ED005093F000209199
:10591000EE0027FDE5CF80E008958F708093E900C9
:1059200081E0089580916A0387FF11C08091E800AB
:1059300082FD05C0809169038111F8CF11C080916B
:10594000E8008B770BC080916903882349F0809130
:10595000E80080FFF8CF8091E8008E778093E80020
:1059600008952091E4003091E50095E64091EC0027
:10597000842F817040FF23C08091E80080FD1DC00E
:1059800080916903882399F0853099F08091EB002C
:1059900085FD11C04091E4005091E50024173507C2
:1059A00029F3915011F09A01E1CF84E0089582E04B
:1059B000089583E0089581E0089580E0089540917E
:1059C000E80042FFDDCF08950E94532D0E945B2D19
:1059D000E0EEF0E0808181608083E8EDF0E080819E
:1059E0008F77808319BCA7EDB0E08C918E7F8C936C
:1059F00080818F7E80831092680308950F931F9398
:105A0000CF93DF930E94532D0E945B2DC8EDD0E011
:105A100088818F77888388818068888388818F7D5B
:105A2000888319BC10926903109265031092670372
:105A30001092660300EE10E0F80180818B7F808376
:105A400088818160888342E060E080E00E945D2C74
:105A5000E1EEF0E080818E7F8083E2EEF0E08081F5
:105A600081608083808188608083F80180818E7F5F
:105A70008083888180618883DF91CF911F910F910E
:105A80000895E8EDF0E080818F7E8083E7EDF0E01F
:105A900080818160808384E082BF81E0809368039D
:105AA0000E94FE2C0895E8EDF0E080818E7F8083D7
:105AB0001092E20008951092DA001092E100089529
:105AC0001F920F920FB60F9211242F933F934F9373
:105AD0005F936F937F938F939F93AF93BF93EF9356
